:100000000C94B4010C94D1010C94D1010C94D10145
:100010000C94D1010C94D1010C94D1010C94D10118
:100020000C94D1010C94D1010C94D1010C94D10108
:100030000C94D1010C94D1010C94D1010C94D101F8
:100040000C94D1010C94D1010C94D1010C94D101E8
:100050000C94D1010C94D1010C94D1010C94D101D8
:100060000C94D1010C94D1010C94D1010C94D101C8
:10007000000000000000000000065F5F06000000B6
:100080000007070007070000147F7F147F7F14001C
:10009000242E6B6B3A120000466630180C66620024
:1000A000307A4F5D377A48000407030000000000F3
:1000B000001C3E63410000000041633E1C00000044
:1000C000082A3E1C1C3E2A0808083E3E080800007C
:1000D00000A0E06000000000080808080808000010
:1000E00000006060000000006030180C0603010092
:1000F0003E7F594D7F3E000042427F7F40400000DE
:10010000627359496F660000226349497F360000D7
:10011000181C16137F7F1000276745457D390000A6
:100120003C7E4B4979300000036371190F070000D2
:10013000367F49497F360000064F49693F1E00005F
:1001400000006C6C0000000000A0EC6C00000000DF
:10015000081C366341000000141414141414000029
:10016000004163361C080000020351590F060000CD
:100170003E7F415D5D1F1E007C7E13137E7C000070
:10018000417F7F49497F36001C3E63414163220025
:10019000417F7F41637F1C00417F7F495D41630058
:1001A000417F7F491D0103001C3E63415173720072
:1001B0007F7F08087F7F000000417F7F41000000B3
:1001C000307040417F3F0100417F7F081C77630012
:1001D000417F7F41406070007F7F060C067F7F007B
:1001E0007F7F060C187F7F001C3E6341633E1C002E
:1001F000417F7F49090F06001E3F21717F5E00008D
:10020000417F7F19396F460026674D597B320000C8
:1002100003417F7F410300007F7F40407F7F0000DC
:100220001F3F60603F1F00007F7F3018307F7F00DE
:1002300063771C081C776300074F78784F0700002E
:100240006773594D47637100007F7F414100000093
:100250000103060C183060000041417F7F00000060
:10026000080C0603060C0800808080808080808057
:100270000000030704000000207454543C78400040
:10028000413F7F44447C3800387C44446C28000063
:10029000307848493F7F4000387C54545C18000057
:1002A000487E7F490302000098BCA4A4F87C0400A7
:1002B000417F7F08047C780000447D7D4000000081
:1002C00040C484FD7D000000417F7F10386C4400F5
:1002D00000417F7F400000007C7C0C180C7C780083
:1002E0007C7C04047C780000387C44447C3800002A
:1002F00084FCF8A4243C1800183C24A4F8FC8400D6
:10030000447C78441C180000485C54547424000059
:1003100000043E7F442400003C7C40403C7C400084
:100320001C3C60603C1C00003C7C6030607C3C00FD
:10033000446C3810386C44009CBCA0A0FC7C0000CD
:100340004C64745C4C64000008083E774141000036
:1003500000000077770000004141773E0808000068
:10036000020301030203010011241FBECFEFD4E0FA
:10037000DEBFCDBF11E0A0E0B1E0ECE2F5E102C0EC
:1003800005900D92AE39B107D9F721E0AEE9B1E0A1
:1003900001C01D92A73BB207E1F70E944E030C94E7
:1003A000940A0C94000081E0809300140895CF9388
:1003B000C82F0E94D301849BFECFE0E0F4E190813E
:1003C000308180812081C13039F050F0C23049F055
:1003D000C33021F080E005C0832F03C0822F01C00D
:1003E000892FCF910895CF9380E00E94D701C82F25
:1003F00081E00E94D7019091A001911102C0C093A9
:10040000A00190919E01911102C080939E01909154
:10041000A1019C1710F4C093A10190910701C91785
:1004200010F4C093070190919F01981710F48093E6
:100430009F0190910601891710F480930601CF91D6
:100440000895CF93DF9380E00E94D701C82FD0E0BA
:1004500081E00E94D701282F30E04091A00150E0B8
:100460004C175D0794F0C41BD50B64E66C9FC0016C
:100470006D9F900D112460910701FA01E61BF109AF
:10048000BF010E94FF05E62F10C0C41BD50B64E618
:100490006C9FC0016D9F900D11246091A10170E0CF
:1004A000641B750B0E94FF05E62F40919E0150E0F2
:1004B000421753078CF0241B350B64E6629FC00182
:1004C000639F900D112420910601BA01621B7109EE
:1004D0000E94FF05962F10C0241B350B64E6629F17
:1004E000C001639F900D112460919F0170E0641B17
:1004F000750B0E94FF05962F8E2FDF91CF910895E7
:100500000E942102292F482F94E0980F993020F45F
:1005100094E0920F9930E0F0082E000C990B99238B
:100520001CF4919581959109522F022E000C330BEA
:1005300033231CF43195219531098217930724F454
:10054000552344F483E00895442334F481E008956E
:1005500084E0089582E0089580E0089583E00E9499
:10056000D70124E6829FC00111246FEF70E00E9442
:10057000FF05862F089586B3817008952BE0E2EA87
:10058000F1E0DC0101900D922A95E1F70895EF92D8
:10059000FF920F931F93CF93DF93CDB7DEB72B97C7
:1005A0000FB6F894DEBF0FBECDBFE982FA820B838F
:1005B0001C832D833E834F83588769877A878B8777
:1005C0006F2D82E30E9472036E2D81E30E947203FD
:1005D0000B81602F85E30E94720310E00CC0E4E001
:1005E000F0E0EC0FFD1FE10FF11D608186E3810F4C
:1005F0000E9472031F5F101790F381E80E94880326
:100600002B960FB6F894DEBF0FBECDBFDF91CF9112
:100610001F910F91FF90EF900895CF92DF92EF928C
:10062000FF920F931F93CF93DF93CDB7DEB72B9736
:100630000FB6F894DEBF0FBECDBF0E942102082E78
:10064000000C990B8C599F4F9C0112F42F5F3F4F68
:100650006901D594C7940E94AE02D82E0E94BB02B5
:100660009FE0E92EFF24FA9403E01C2D2D2D382F56
:100670004F81588569857A858B850E94C7022B96A4
:100680000FB6F894DEBF0FBECDBFDF91CF911F91A3
:100690000F91FF90EF90DF90CF9008950E94E505B5
:1006A0000E94EC050E94D10380E00E94AD030E94ED
:1006B00002050E947A050E94690480E090E0089596
:1006C000CF93C82F88B38F7E88BB83E00E94DC0560
:1006D0008C2F0E94DC050E94E00598B3906198BBC6
:1006E000CF910895CF93DF93D82FC62F88B38F7EF5
:1006F00088BB82E00E94DC058D2F0E94DC058C2FD8
:100700000E94DC0588B3806188BBDF91CF9108959A
:1007100098B39F7E98BB0E94DC0588B3806188BB3C
:1007200008951F93CF93DF93182FD62FC42F88B32C
:100730008F7E88BB85E00E94DC05812F0E94DC054E
:100740008D2F0E94DC058C2F0E94DC0588B3806110
:1007500088BBDF91CF911F910895CF93C82F482F69
:1007600060EE8FE00E9491038EE00E946003807E25
:100770008C1751F088E091E09F938F930E9472064E
:100780000F900F9081E001C080E0CF91089588B371
:100790008F7E88BB80EC0E94DC0588B3806188BBBB
:1007A0000895789481B38B7F81BB8BB780648BBFB6
:1007B0000E94D2050E94C70385B7826085BF85B7B6
:1007C0008E7F85BF8EE00E946003807E803851F06E
:1007D00084E391E09F938F930E9472060F900F9095
:1007E00081E0089541E46FEF8AE20E9491034AE6B6
:1007F0006FEF89E20E94910342E067E088E20E9485
:10080000910343E063E08BE20E94910340E061E0EA
:100810008CE20E94910340E660E680E60E9491032C
:1008200080E00895CF93DF93CDB7DEB72B970FB657
:10083000F894DEBF0FBECDBF0E947A0564E186E06A
:100840000E9492058AE691E09F938F930E94720620
:100850000F900F90CE0101960E94BE028C818130D4
:1008600081F00E9480020E94F3010E940D032FEF8D
:100870008FEF92E0215080409040E1F700C000C02F
:10088000E9CF0E947A052B960FB6F894DEBF0FBE13
:10089000CDBFDF91CF9108951F93CF93DF93EC01EC
:1008A00018850E947A050A80DB81C02D64E1888565
:1008B0000E9492058E819F819F938F930E94720662
:1008C00088850F900F901813EECFDF91CF911F9175
:1008D0000895CF93DF93CDB7DEB7AC970FB6F894FA
:1008E000DEBF0FBECDBF82E791E09B8B8A8B9E015E
:1008F000295E3F4F3F872E87AE014E5D5F4F598B7C
:10090000488BCE0101969D878C871C8A6CE771E02D
:100910007E8F6D8F5A8F498F7E014CE0E40EF11C63
:10092000FC8EEB8E988F8F8B41E04F8F1E8A1D8A35
:1009300045E851E059A748A7FDA2ECA23FA32EA38A
:100940009BA38AA382E08AA78AE891E098878F8395
:100950001C821B821E821D820E947A05C7010E9492
:100960004C040E94F3010E94BB02182F0E948002D7
:10097000082F833071F441E164E0F70180850E9423
:100980009B05F701E280F38064E0F70180850E9417
:10099000AB05023071F441E164E0F70180850E940B
:1009A0009B05F701E480F58064E0F70180850E94F3
:1009B000AB05113039F4CE010C96E816F90611F4A6
:1009C0000E94120486E00E946D0565E086E00E94A8
:1009D00092051F921F938FE891E09F938F930E943F
:1009E0007206FFEF2FEF42E0F15020404040E1F768
:1009F00000C000C00F900F900F900F90B2CF809367
:100A0000001008958EEA0E94FF0481EA0E94FF040C
:100A10008AED0E94FF0482E10E94FF0488EC0E949C
:100A2000FF0488EA0E94FF048FE30E94FF0485ED23
:100A30000E94FF0480E80E94FF0481E80E94FF04F6
:100A400080E50E94FF0489ED0E94FF0481E20E947C
:100A5000FF0480E20E94FF0482E00E94FF048BED0D
:100A60000E94FF0480E30E94FF048DEA0E94FF04BD
:100A700080E00E94FF0484EA0E94FF0486EA0E944C
:100A8000FF048FEA0E94FF0460E070E08EE495E0CE
:100A90000E9427060895809300120895CF93DF9354
:100AA000D82FC0E011C0ED2FF0E0B097EE0FFF1F80
:100AB000EE0FFF1FEE0FFF1FEC0FF11DE059FF4F70
:100AC00084910E944B05CF5FC83068F3DF91CF91CE
:100AD000089580550E94FF040895CF930E946905F0
:100AE000C0E004C080E00E944B05CF5FCC23D4F768
:100AF000CF910895CF93C0E004C08C2F0E946D0564
:100B0000CF5FC830D0F3CF910895CF93C82F82958F
:100B10008F70805F0E94FF048C2F8F700E94FF04F3
:100B2000CF910895CF93C62F0E9469058C2F0E9404
:100B30008505CF910895CF93DF93C62FD42F0E94C0
:100B4000920504C080E00E944B05CF5FCD17D0F323
:100B5000DF91CF9108950E94920586E60E944B0591
:100B60008FEF0E944B058FEF0E944B058EE70E948E
:100B70004B0588E10E944B0588E10E944B0588E106
:100B80000E944B0588E10E944B0588E10E944B05BD
:100B90008CE30E944B058CE30E944B0588E10E9488
:100BA0004B05089587B3806B87BB8DB181658DB987
:100BB00087B38F7B87BB08958FB9779BFECF08954E
:100BC0008FE00E94DC058FB1089585B7806885BFEE
:100BD00080B7806280BF089581B3806281BB81B39A
:100BE00081BB8EB588608EBD8FB58FBD8EB581609F
:100BF0008EBD8FB580648FBD1BBC1ABC089597FB5A
:100C0000072E16F4009407D077FD09D00E94130632
:100C100007FC05D03EF4909581959F4F08957095FF
:100C200061957F4F0895AA1BBB1B51E107C0AA1F06
:100C3000BB1FA617B70710F0A61BB70B881F991F7D
:100C40005A95A9F780959095BC01CD0108950F9311
:100C50001F93CF93DF93009731F46115710519F459
:100C600080E090E03AC08B01EC016EE070E081E042
:100C700090E00E946908FC01892B91F380E883834E
:100C80000115110571F01387028781E88383809134
:100C9000AD019091AE01892B21F4F093AE01E09368
:100CA000AD012097C9F0D187C0878381826083839B
:100CB0008091AF019091B001892B71F4F093B00154
:100CC000E093AF018091B1019091B201892B21F4A1
:100CD000F093B201E093B101CF01DF91CF911F9169
:100CE0000F910895A0E0B0E0E8E7F6E00C946D0AFB
:100CF000AE014B5F5F4FFA0161917191AF0180913D
:100D0000AF019091B0010E948806E2E00C94890A3C
:100D1000ABE0B0E0EEE8F6E00C945D0A6C017B011C
:100D20008A01FC0117821682838181FFCCC1CE012A
:100D300001963C01F6019381F70193FD859193FFA4
:100D400081917F01882309F4BAC1853239F493FD7A
:100D5000859193FF81917F01853229F4B60190E05E
:100D60000E94C309E7CF912C212C312CFFE1F31510
:100D7000D8F08B3279F038F4803279F08332A1F4F4
:100D8000232D20611DC08D3261F0803369F4232D45
:100D9000216016C0832D8260382EE32DE4603E2E44
:100DA0002AC0F32DF8601DC037FC2DC020ED280FA0
:100DB0002A3040F08E32B9F436FC81C1232D2064F4
:100DC000322E19C036FE06C08AE0989E200D1124EE
:100DD000922E11C0EAE02E9E200D1124222EF32D1A
:100DE000F0623F2E08C08C3621F4832D8068382EA7
:100DF00002C0883641F4F70193FD859193FF8191FC
:100E00007F018111B3CF982F9F7D9554933028F4A3
:100E10000C5F1F4F9FE399830DC0833631F08337FA
:100E200071F0833509F059C021C0F80180818983B0
:100E30000E5F1F4F88248394912C530113C0280107
:100E4000F2E04F0E511CF801A080B18036FE03C0C5
:100E5000692D70E002C06FEF7FEFC5010E94B809F5
:100E60004C018201F32DFF773F2E16C0280122E0AE
:100E7000420E511CF801A080B18036FE03C0692DDE
:100E800070E002C06FEF7FEFC5010E94A6094C0120
:100E9000F32DF0683F2E820133FC1BC0822D90E0C1
:100EA00088169906B0F4B60180E290E00E94C3096A
:100EB0002A94F4CFF50137FC859137FE81915F01CB
:100EC000B60190E00E94C30921102A9421E0821A01
:100ED00091088114910471F7E8C0843611F08936C5
:100EE00041F5F80137FE07C06081718182819381ED
:100EF0000C5F1F4F08C060817181072E000C880BAA
:100F0000990B0E5F1F4FF32DFF763F2E97FF09C001
:100F100090958095709561957F4F8F4F9F4FF068AA
:100F20003F2E2AE030E0A3010E94FF09882E861898
:100F300045C0853731F4232D2F7EB22E2AE030E0D4
:100F400025C0932D997FB92E8F36C1F018F48835BE
:100F500079F0B5C0803719F0883721F0B0C0E92F9B
:100F6000E061BE2EB4FE0DC0FB2DF460BF2E09C0A3
:100F700034FE0AC0292F2660B22E06C028E030E0D9
:100F800005C020E130E002C020E132E0F801B7FE08
:100F900007C060817181828193810C5F1F4F06C001
:100FA0006081718180E090E00E5F1F4FA3010E947D
:100FB000FF09882E8618FB2DFF773F2E36FE0DC0C9
:100FC000232D2E7FA22E891458F434FE0BC032FC40
:100FD00009C0832D8E7EA82E05C0B82CA32C03C07B
:100FE000B82C01C0B92CA4FE0FC0FE01E80DF11D04
:100FF0008081803321F49A2D997EA92E09C0A2FE0A
:1010000006C0B394B39404C08A2D867809F0B394D3
:10101000A3FC11C0A0FE06C0B21488F4280C922CC8
:101020009B180EC0B21460F4B60180E290E00E94FA
:10103000C309B394F7CFB21418F42B1802C0982C3C
:10104000212CA4FE10C0B60180E390E00E94C309E9
:10105000A2FE17C0A1FC03C088E790E002C088E5AB
:1010600090E0B6010CC08A2D867859F0A1FE02C02E
:101070008BE201C080E2A7FC8DE2B60190E00E9405
:10108000C309891438F4B60180E390E00E94C309D3
:101090009A94F7CF8A94F301E80DF11D8081B6018F
:1010A00090E00E94C3098110F5CF222009F442CEBE
:1010B000B60180E290E00E94C3092A94F6CFF601BF
:1010C0008681978102C08FEF9FEF2B96E2E10C940F
:1010D000790A0F931F93CF93DF93869F8001879F99
:1010E000100D969F100D1124C8010E948508EC0177
:1010F000009729F0A80160E070E00E94B109CE01DC
:10110000DF91CF911F910F9108950F931F93CF936C
:10111000DF938230910510F482E090E0E091B50118
:10112000F091B60120E030E0A0E0B0E0309719F196
:10113000408151810281138148175907C8F08417F3
:10114000950769F4109731F012960C931297139645
:101150001C9327C00093B5011093B60122C021153E
:10116000310519F04217530718F49A01BD01EF0138
:10117000DF01F801DBCF21153105F9F0281B390B10
:101180002430310580F48A819B816115710521F03D
:10119000FB019383828304C09093B6018093B501D1
:1011A000FE01329644C0FE01E20FF31F819391933A
:1011B00022503109398328833AC02091B3013091FC
:1011C000B401232B41F420910201309103013093AB
:1011D000B4012093B3012091000130910101211548
:1011E000310541F42DB73EB74091040150910501FE
:1011F000241B350BE091B301F091B401E217F30722
:10120000A0F42E1B3F0B2817390778F0AC014E5F76
:101210005F4F2417350748F04E0F5F1F5093B401FE
:101220004093B3018193919302C0E0E0F0E0CF01DD
:10123000DF91CF911F910F910895CF93DF93009786
:1012400009F481C0FC01329713821282A091B5018A
:10125000B091B601109781F420813181820F931FE4
:101260002091B3013091B4012817390751F5F0935B
:10127000B401E093B30167C0ED0120E030E0CE1788
:10128000DF0740F44A815B819E0141155105F1F071
:10129000EA01F5CFD383C28340815181840F951F2A
:1012A000C817D90759F488819981840F951F029630
:1012B000918380838A819B81938382832115310569
:1012C00029F4F093B601E093B5013DC0E901FB8339
:1012D000EA8349915991C40FD51FEC17FD0761F4BA
:1012E00080819181840F951F0296E90199838883FB
:1012F000828193819B838A83E0E0F0E012968D9156
:101300009C911397009719F0FD01DC01F7CF8D91A7
:101310009C9111979D012E5F3F4F820F931F20914B
:10132000B3013091B4012817390769F4309729F4D3
:101330001092B6011092B50102C013821282B093CE
:10134000B401A093B301DF91CF910895FC01059002
:10135000615070400110D8F7809590958E0F9F1FB7
:101360000895DC0101C06D9341505040E0F70895AD
:10137000FC016150704001900110D8F78095909564
:101380008E0F9F1F08950F931F93CF93DF93FB0141
:10139000238121FD03C08FEF9FEF2CC022FF16C0D9
:1013A00046815781248135814217530744F4A08137
:1013B000B1819D012F5F3F4F318320838C93268124
:1013C00037812F5F3F4F3783268314C08B01EC0199
:1013D000FB010084F185E02D0995892BE1F6D80108
:1013E00016968D919C911797019617969C938E93C4
:1013F0001697CE01DF91CF911F910F910895FA01B9
:10140000AA27283051F1203181F1E8946F936E7F43
:101410006E5F7F4F8F4F9F4FAF4FB1E03ED0B4E034
:101420003CD0670F781F891F9A1FA11D680F791F75
:101430008A1F911DA11D6A0F711D811D911DA11D86
:1014400020D009F468943F912AE0269F1124301996
:10145000305D3193DEF6CF010895462F4770405D31
:101460004193B3E00FD0C9F7F6CF462F4F70405DE0
:101470004A3318F0495D31FD4052419302D0A9F73B
:10148000EACFB4E0A6959795879577956795BA9535
:10149000C9F700976105710508959B01AC010A2EFB
:1014A00006945795479537952795BA95C9F7620FD2
:1014B000731F841F951FA01D08952F923F924F9276
:1014C0005F926F927F928F929F92AF92BF92CF92D4
:1014D000DF92EF92FF920F931F93CF93DF93CDB7DD
:1014E000DEB7CA1BDB0B0FB6F894DEBF0FBECDBF55
:1014F00009942A88398848885F846E847D848C8426
:101500009B84AA84B984C884DF80EE80FD800C812E
:101510001B81AA81B981CE0FD11D0FB6F894DEBF11
:0C1520000FBECDBFED010895F894FFCF81
:10152C000000B7012000FFFF206D637032353135AC
:10153C00206973206E6F74206368616E6765642028
:10154C00746F2064657369726564206D6F646520C7
:10155C00210A0D00204D435032353135206973205E
:10156C004E4F5420696E20636F6E666967757261A9
:10157C0074696F6E206D6F6465206166746572208E
:10158C00726573657420210A0D00706C6179696E47
:10159C006700506C61792067616D650053657474E8
:1015AC00696E67730051756974004D61696E004214
:0E15BC007574746F6E2056616C3A20257500B0
:00000001FF
