S00E00004E6F646520312E737265633F
S11300000C9438000C94A7010C9455000C945500E2
S11300100C9455000C9455000C9455000C94550008
S11300200C9455000C9455000C9455000C945500F8
S11300300C9455000C9455000C9455000C945500E8
S11300400C9455000C9455000C9455000C945500D8
S11300500C9455000C9455000C9455000C945500C8
S11300600C9455000C9455000C9455000C945500B8
S113007011241FBECFEFD4E0DEBFCDBF11E0A0E05E
S1130080B1E0E0E1FFE002C005900D92AA3AB107A9
S1130090D9F721E0AAEAB1E001C01D92A93BB20759
S11300A0E1F70E94DE010C9486070C94000081E0C5
S11300B0809300140895CF93C82F0E945700849B07
S11300C0FECFE0E0F4E19081308180812081C13075
S11300D039F050F0C23049F0C33021F080E005C05F
S11300E0832F03C0822F01C0892FCF910895CF930E
S11300F080E00E945B00C82F81E00E945B00909129
S1130100AC01911102C0C093AC019091AA0191116C
S113011002C08093AA019091AD019C1710F4C09382
S1130120AD0190910701C91710F4C0930701909194
S1130130AB01981710F48093AB01909106018917D5
S113014010F480930601CF910895CF93DF9380E05C
S11301500E945B00C82FD0E081E00E945B00282F42
S113016030E04091AC0150E04C175D0794F0C41BA3
S1130170D50B64E66C9FC0016D9F900D11246091B6
S11301800701FA01E61BF109BF010E94F102E62F03
S113019010C0C41BD50B64E66C9FC0016D9F900D0D
S11301A011246091AD0170E0641B750B0E94F10293
S11301B0E62F4091AA0150E0421753078CF0241B0C
S11301C0350B64E6629FC001639F900D112420915A
S11301D00601BA01621B71090E94F102962F10C038
S11301E0241B350B64E6629FC001639F900D1124AC
S11301F06091AB0170E0641B750B0E94F102962FB5
S11302008E2FDF91CF9108950E94A500292F482FAA
S113021094E0980F993020F494E0920F9930E0F034
S1130220082E000C990B99231CF491958195910942
S1130230522F022E000C330B33231CF431952195DD
S113024031098217930724F4552344F483E0089575
S1130250442334F481E0089584E0089582E008950D
S113026080E0089583E00E945B0024E6829FC00141
S113027011246FEF70E00E94F102862F089586B377
S1130280817008950F931F93CF93DF93162FD42F6C
S1130290C22F682F82E30E940D02612F81E30E9426
S11302A00D0263E085E30E940D026D2F86E30E9438
S11302B00D026C2F87E30E940D02602F88E30E94D9
S11302C00D0281E80E942302DF91CF911F910F91CB
S11302D0089581E60E94FB0182E60E94FB0185E607
S11302E00E94FB0186E60E94FB0108950F931F9371
S11302F0CF93DF930E94A500082E000C990B8C5914
S11303009F4FAC0112F44F5F5F4FEA01D595C7953B
S11303100E943201182F0E943F01082FCE01992715
S11303209F938F9388E091E09F938F930E9464033F
S1130330212F4C2F6FE08FEF0E9442010F900F90FE
S11303400F900F90DF91CF911F910F9108951F92FD
S11303500F920FB60F9211242F933F934F935F93F5
S11303606F937F938F939F93AF93BF93EF93FF9379
S1130370CF93DF931F92CDB7DEB78CE20E94FB01CF
S11303808983698140E08CE20E942C020E94690109
S11303908093AE010F90DF91CF91FF91EF91BF91C8
S11303A0AF919F918F917F916F915F914F913F9109
S11303B02F910F900FBE0F901F9018950E94D70297
S11303C00E94DE028FE190E00E94CA020E94740241
S11303D080E00E9448020E9404010E9477000E946B
S11303E076012FEF8FEF92E0215080409040E1F7AB
S11303F000C000C0F0CFCF93C82F88B38F7E88BBD6
S113040083E00E94B9028C2F0E94B9020E94BD02AF
S113041098B3906198BBCF910895CF93DF93D82F71
S1130420C62F88B38F7E88BB82E00E94B9028D2FCD
S11304300E94B9028C2F0E94B90288B3806188BBE4
S1130440DF91CF91089598B39F7E98BB0E94B90223
S113045088B3806188BB08951F93CF93DF93182FCF
S1130460D62FC42F88B38F7E88BB85E00E94B90243
S1130470812F0E94B9028D2F0E94B9028C2F0E94F5
S1130480B90288B3806188BBDF91CF911F91089531
S1130490CF93C82F482F60EE8FE00E942C028EE08D
S11304A00E94FB01807E8C1751F083E191E09F93C1
S11304B08F930E9464030F900F9081E009C08FE333
S11304C091E09F938F930E9464030F900F9080E0BC
S11304D0CF91089588B38F7E88BB80EC0E94B902C7
S11304E088B3806188BB089578948BB780648BBF90
S11304F00E94AF020E946A028EE00E94FB01807E8D
S1130500803851F08FE591E09F938F930E946403AC
S11305100F900F9081E0089585E991E09F938F9368
S11305200E94640341E46FEF8AE20E942C024AE6CF
S11305306FEF89E20E942C0242E067E088E20E94A9
S11305402C024CE164E58BE20E942C0243E063E060
S11305508BE20E942C020F900F9080E0089587B3E5
S1130560806B87BB8DB181658DB987B38F7B87BB6A
S113057008958FB9779BFECF08958FE00E94B9024A
S11305808FB108955D9BFECF8CB908955F9BFECF1C
S11305908CB1089590BD89B988E18AB98EE880BD8F
S11305A066EC72E082EC92E00E941903089585B72C
S11305B0806885BF80B7806280BF089581B3806200
S11305C081BB81B381BB8EB588608EBD8FB58FBD75
S11305D08EB581608EBD8FB580648FBD1BBC1ABC87
S11305E0089597FB072E16F4009407D077FD09D0E1
S11305F00E94050307FC05D03EF4909581959F4F1A
S11306000895709561957F4F0895AA1BBB1B51E116
S113061007C0AA1FBB1FA617B70710F0A61BB70B6E
S1130620881F991F5A95A9F780959095BC01CD0113
S113063008950F931F93CF93DF93009731F46115BF
S1130640710519F480E090E03AC08B01EC016EE092
S113065070E081E090E00E945B05FC01892B91F33E
S113066080E883830115110571F01387028781E8FF
S113067083838091AF019091B001892B21F4F09391
S1130680B001E093AF012097C9F0D187C08783817F
S1130690826083838091B1019091B201892B71F4BE
S11306A0F093B201E093B1018091B3019091B40150
S11306B0892B21F4F093B401E093B301CF01DF91CE
S11306C0CF911F910F910895A0E0B0E0EAE6F3E026
S11306D00C945F07AE014B5F5F4FFA01619171911A
S11306E0AF018091B1019091B2010E947A03E2E0DE
S11306F00C947B07ABE0B0E0E0E8F3E00C944F0728
S11307006C017B018A01FC0117821682838181FFBF
S1130710CCC1CE0101963C01F6019381F70193FD12
S1130720859193FF81917F01882309F4BAC18532B1
S113073039F493FD859193FF81917F01853229F4EA
S1130740B60190E00E94B506E7CF912C212C312C04
S1130750FFE1F315D8F08B3279F038F4803279F078
S11307608332A1F4232D20611DC08D3261F08033CA
S113077069F4232D216016C0832D8260382EE32D69
S1130780E4603E2E2AC0F32DF8601DC037FC2DC056
S113079020ED280F2A3040F08E32B9F436FC81C1A6
S11307A0232D2064322E19C036FE06C08AE0989E9E
S11307B0200D1124922E11C0EAE02E9E200D11244A
S11307C0222EF32DF0623F2E08C08C3621F4832DA7
S11307D08068382E02C0883641F4F70193FD859174
S11307E093FF81917F018111B3CF982F9F7D955401
S11307F0933028F40C5F1F4F9FE399830DC0833619
S113080031F0833771F0833509F059C021C0F80104
S1130810808189830E5F1F4F88248394912C530118
S113082013C02801F2E04F0E511CF801A080B180E2
S113083036FE03C0692D70E002C06FEF7FEFC50183
S11308400E94AA064C018201F32DFF773F2E16C0A9
S1130850280122E0420E511CF801A080B18036FE2E
S113086003C0692D70E002C06FEF7FEFC5010E94E5
S113087098064C01F32DF0683F2E820133FC1BC017
S1130880822D90E088169906B0F4B60180E290E0DB
S11308900E94B5062A94F4CFF50137FC859137FE02
S11308A081915F01B60190E00E94B50621102A945F
S11308B021E0821A91088114910471F7E8C084360A
S11308C011F0893641F5F80137FE07C06081718166
S11308D0828193810C5F1F4F08C060817181072E54
S11308E0000C880B990B0E5F1F4FF32DFF763F2EE4
S11308F097FF09C090958095709561957F4F8F4FB4
S11309009F4FF0683F2E2AE030E0A3010E94F106D9
S1130910882E861845C0853731F4232D2F7EB22EBC
S11309202AE030E025C0932D997FB92E8F36C1F08F
S113093018F4883579F0B5C0803719F0883721F07C
S1130940B0C0E92FE061BE2EB4FE0DC0FB2DF460F3
S1130950BF2E09C034FE0AC0292F2660B22E06C05D
S113096028E030E005C020E130E002C020E132E0C0
S1130970F801B7FE07C060817181828193810C5FA9
S11309801F4F06C06081718180E090E00E5F1F4FB1
S1130990A3010E94F106882E8618FB2DFF773F2EB7
S11309A036FE0DC0232D2E7FA22E891458F434FE5A
S11309B00BC032FC09C0832D8E7EA82E05C0B82C36
S11309C0A32C03C0B82C01C0B92CA4FE0FC0FE0197
S11309D0E80DF11D8081803321F49A2D997EA92E92
S11309E009C0A2FE06C0B394B39404C08A2D8678CD
S11309F009F0B394A3FC11C0A0FE06C0B21488F49D
S1130A00280C922C9B180EC0B21460F4B60180E23C
S1130A1090E00E94B506B394F7CFB21418F42B18E3
S1130A2002C0982C212CA4FE10C0B60180E390E0F3
S1130A300E94B506A2FE17C0A1FC03C088E790E09F
S1130A4002C088E590E0B6010CC08A2D867859F082
S1130A50A1FE02C08BE201C080E2A7FC8DE2B601D8
S1130A6090E00E94B506891438F4B60180E390E062
S1130A700E94B5069A94F7CF8A94F301E80DF11D0C
S1130A808081B60190E00E94B5068110F5CF222046
S1130A9009F442CEB60180E290E00E94B5062A94A1
S1130AA0F6CFF6018681978102C08FEF9FEF2B96D8
S1130AB0E2E10C946B070F931F93CF93DF93869F10
S1130AC08001879F100D969F100D1124C8010E946C
S1130AD07705EC01009729F0A80160E070E00E941E
S1130AE0A306CE01DF91CF911F910F9108950F932B
S1130AF01F93CF93DF938230910510F482E090E04E
S1130B00E091B701F091B80120E030E0A0E0B0E05E
S1130B10309719F140815181028113814817590797
S1130B20C8F08417950769F4109731F012960C9366
S1130B30129713961C9327C00093B7011093B80122
S1130B4022C02115310519F04217530718F49A01F0
S1130B50BD01EF01DF01F801DBCF21153105F9F00B
S1130B60281B390B2430310580F48A819B8161155F
S1130B70710521F0FB019383828304C09093B80133
S1130B808093B701FE01329644C0FE01E20FF31FC9
S1130B908193919322503109398328833AC020915B
S1130BA0B5013091B601232B41F42091020130911B
S1130BB003013093B6012093B501209100013091D7
S1130BC001012115310541F42DB73EB740910401CF
S1130BD050910501241B350BE091B501F091B6014C
S1130BE0E217F307A0F42E1B3F0B2817390778F000
S1130BF0AC014E5F5F4F2417350748F04E0F5F1F5F
S1130C005093B6014093B5018193919302C0E0E003
S1130C10F0E0CF01DF91CF911F910F910895CF9311
S1130C20DF93009709F481C0FC013297138212828A
S1130C30A091B701B091B801109781F4208131815E
S1130C40820F931F2091B5013091B60128173907FF
S1130C5051F5F093B601E093B50167C0ED0120E0D2
S1130C6030E0CE17DF0740F44A815B819E014115D5
S1130C705105F1F0EA01F5CFD383C283408151815C
S1130C80840F951FC817D90759F488819981840F57
S1130C90951F0296918380838A819B8193838283AB
S1130CA02115310529F4F093B801E093B7013DC053
S1130CB0E901FB83EA8349915991C40FD51FEC17CD
S1130CC0FD0761F480819181840F951F0296E901EB
S1130CD099838883828193819B838A83E0E0F0E017
S1130CE012968D919C911397009719F0FD01DC01E8
S1130CF0F7CF8D919C9111979D012E5F3F4F820FED
S1130D00931F2091B5013091B6012817390769F472
S1130D10309729F41092B8011092B70102C01382DF
S1130D201282B093B601A093B501DF91CF910895DB
S1130D30FC010590615070400110D8F780959095A2
S1130D408E0F9F1F0895DC0101C06D9341505040E8
S1130D50E0F70895FC016150704001900110D8F74C
S1130D60809590958E0F9F1F08950F931F93CF9397
S1130D70DF93FB01238121FD03C08FEF9FEF2CC084
S1130D8022FF16C0468157812481358142175307BB
S1130D9044F4A081B1819D012F5F3F4F31832083B3
S1130DA08C93268137812F5F3F4F3783268314C06E
S1130DB08B01EC01FB010084F185E02D0995892B61
S1130DC0E1F6D80116968D919C9117970196179686
S1130DD09C938E931697CE01DF91CF911F910F9123
S1130DE00895FA01AA27283051F1203181F1E894BD
S1130DF06F936E7F6E5F7F4F8F4F9F4FAF4FB1E00A
S1130E003ED0B4E03CD0670F781F891F9A1FA11D04
S1130E10680F791F8A1F911DA11D6A0F711D811D05
S1130E20911DA11D20D009F468943F912AE0269FCA
S1130E3011243019305D3193DEF6CF010895462F29
S1130E404770405D4193B3E00FD0C9F7F6CF462F0A
S1130E504F70405D4A3318F0495D31FD4052419373
S1130E6002D0A9F7EACFB4E0A69597958795779530
S1130E706795BA95C9F700976105710508959B01B7
S1130E80AC010A2E06945795479537952795BA9540
S1130E90C9F7620F731F841F951FA01D08952F9219
S1130EA03F924F925F926F927F928F929F92AF92F6
S1130EB0BF92CF92DF92EF92FF920F931F93CF9343
S1130EC0DF93CDB7DEB7CA1BDB0B0FB6F894DEBFDA
S1130ED00FBECDBF09942A88398848885F846E8400
S1130EE07D848C849B84AA84B984C884DF80EE804A
S1130EF0FD800C811B81AA81B981CE0FD11D0FB653
S1130F00F894DEBF0FBECDBFED010895F894FFCF76
S1130F100000B9012000FFFF50574D3A20256420FE
S1130F200A0D00206D637032353135206973206EEF
S1130F306F74206368616E67656420746F206465F4
S1130F407369726564206D6F646520210A0D004D1C
S1130F504350207375636365737366756C6C792095
S1130F606368616E676564206D6F64650A0D0020B7
S1130F704D435032353135206973204E4F5420692A
S1130F806E20636F6E66696775726174696F6E2037
S1130F906D6F646520616674657220726573657433
S1130FA020210A0D004D435020696E20436F6E6668
S10D0FB069672D6D6F64650A0D007A
S9030000FC
