:100000000C9438000C9461010C9455000C9455002C
:100010000C9455000C9455000C9455000C9455000C
:100020000C9455000C9455000C9455000C945500FC
:100030000C9455000C9455000C9455000C945500EC
:100040000C9455000C9455000C9455000C945500DC
:100050000C9455000C9455000C9455000C945500CC
:100060000C9455000C9455000C9455000C945500BC
:1000700011241FBECFEFD4E0DEBFCDBF11E0A0E062
:10008000B1E0ECE9FEE002C005900D92A83BB1079B
:10009000D9F721E0A8EBB1E001C01D92A73CB2075F
:1000A000E1F70E9498010C944C070C94000081E049
:1000B000809300140895CF93C82F0E945700849B0B
:1000C000FECFE0E0F4E19081308180812081C13079
:1000D00039F050F0C23049F0C33021F080E005C063
:1000E000832F03C0822F01C0892FCF910895CF9312
:1000F00080E00E945B00C82F81E00E945B0090912D
:10010000BA01911102C0C093BA019091B801911146
:1001100002C08093B8019091BB019C1710F4C0936A
:10012000BB0190910701C91710F4C093070190918A
:10013000B901981710F48093B901909106018917BD
:1001400010F480930601CF910895CF93DF9380E060
:100150000E945B00C82FD0E081E00E945B00282F46
:1001600030E04091BA0150E04C175D0794F0C41B99
:10017000D50B64E66C9FC0016D9F900D11246091BA
:100180000701FA01E61BF109BF010E94B702E62F41
:1001900010C0C41BD50B64E66C9FC0016D9F900D11
:1001A00011246091BB0170E0641B750B0E94B702C3
:1001B000E62F4091B80150E0421753078CF0241B02
:1001C000350B64E6629FC001639F900D112420915E
:1001D0000601BA01621B71090E94B702962F10C076
:1001E000241B350B64E6629FC001639F900D1124B0
:1001F0006091B90170E0641B750B0E94B702962FE5
:100200008E2FDF91CF9108950E94A500292F482FAE
:1002100094E0980F993020F494E0920F9930E0F038
:10022000082E000C990B99231CF491958195910946
:10023000522F022E000C330B33231CF431952195E1
:1002400031098217930724F4552344F483E0089579
:10025000442334F481E0089584E0089582E0089511
:1002600080E008950E940401482F6FE08FEF0E9404
:100270003A010895CF93DF93D62FC42F682F82E3DE
:100280000E94D3016D2F81E30E94D30161E085E3D9
:100290000E94D3016C2F86E30E94D30181E80E9463
:1002A000E901DF91CF91089581E60E94C10182E6C4
:1002B0000E94C10185E60E94C10186E60E94C1013B
:1002C00008951F920F920FB60F9211242F933F9310
:1002D0004F935F936F937F938F939F93AF93BF934E
:1002E000EF93FF93CF93DF931F92CDB7DEB78CE2EE
:1002F0000E94C1018983698140E08CE20E94F20181
:100300000E9454018093BC010F90DF91CF91FF9127
:10031000EF91BF91AF919F918F917F916F915F917D
:100320004F913F912F910F900FBE0F901F901895F6
:100330000E949D020E94A4028FE190E00E94900220
:100340000E943A0280E00E940E020E9477000E9402
:1003500004011F928F9388E091E09F938F930E94F6
:100360002A030E9432012FEF8FEF92E0215080404C
:100370009040E1F700C000C00F900F900F900F90D9
:10038000E4CFCF93C82F88B38F7E88BB83E00E94D1
:100390007F028C2F0E947F020E94830298B390619B
:1003A00098BBCF910895CF93DF93D82FC62F88B3F2
:1003B0008F7E88BB82E00E947F028D2F0E947F0289
:1003C0008C2F0E947F0288B3806188BBDF91CF9120
:1003D000089598B39F7E98BB0E947F0288B3806186
:1003E00088BB08951F93CF93DF93182FD62FC42F68
:1003F00088B38F7E88BB85E00E947F02812F0E9498
:100400007F028D2F0E947F028C2F0E947F0288B373
:10041000806188BBDF91CF911F910895CF93C82F42
:10042000482F60EE8FE00E94F2018EE00E94C10131
:10043000807E8C1751F081E291E09F938F930E9410
:100440002A030F900F9081E009C08DE491E09F9303
:100450008F930E942A030F900F9080E0CF91089510
:1004600088B38F7E88BB80EC0E947F0288B3806156
:1004700088BB089578948BB780648BBF0E94750207
:100480000E9430028EE00E94C101807E803851F0CF
:100490008DE691E09F938F930E942A030F900F9017
:1004A00081E0089583EA91E09F938F930E942A034D
:1004B00041E46FEF8AE20E94F2014AE66FEF89E2BF
:1004C0000E94F20142E067E088E20E94F2014CE102
:1004D00064E58BE20E94F20143E063E08BE20E945C
:1004E000F2010F900F9080E0089587B3806B87BB77
:1004F0008DB181658DB987B38F7B87BB08958FB927
:10050000779BFECF08958FE00E947F028FB1089500
:100510005D9BFECF8CB908955F9BFECF8CB1089593
:1005200090BD89B988E18AB98EE880BD6CE872E037
:1005300088E892E00E94DF02089585B7806885BF51
:1005400080B7806280BF089581B3806281BB81B330
:1005500081BB8EB588608EBD8FB58FBD8EB5816035
:100560008EBD8FB580648FBD1BBC1ABC089597FBF0
:10057000072E16F4009407D077FD09D00E94CB0215
:1005800007FC05D03EF4909581959F4F0895709596
:1005900061957F4F0895AA1BBB1B51E107C0AA1F9D
:1005A000BB1FA617B70710F0A61BB70B881F991F14
:1005B0005A95A9F780959095BC01CD0108950F93A8
:1005C0001F93CF93DF93009731F46115710519F4F0
:1005D00080E090E03AC08B01EC016EE070E081E0D9
:1005E00090E00E942105FC01892B91F380E8838330
:1005F0000115110571F01387028781E883838091CB
:10060000BD019091BE01892B21F4F093BE01E093CE
:10061000BD012097C9F0D187C08783818260838321
:100620008091BF019091C001892B71F4F093C001BA
:10063000E093BF018091C1019091C201892B21F407
:10064000F093C201E093C101CF01DF91CF911F91DF
:100650000F910895A0E0B0E0E0E3F3E00C942507EB
:10066000AE014B5F5F4FFA0161917191AF018091D3
:10067000BF019091C0010E944003E2E00C94410749
:10068000ABE0B0E0E6E4F3E00C9415076C017B010D
:100690008A01FC0117821682838181FFCCC1CE01C1
:1006A00001963C01F6019381F70193FD859193FF3B
:1006B00081917F01882309F4BAC1853239F493FD11
:1006C000859193FF81917F01853229F4B60190E0F5
:1006D0000E947B06E7CF912C212C312CFFE1F315F2
:1006E000D8F08B3279F038F4803279F08332A1F48B
:1006F000232D20611DC08D3261F0803369F4232DDC
:10070000216016C0832D8260382EE32DE4603E2EDA
:100710002AC0F32DF8601DC037FC2DC020ED280F36
:100720002A3040F08E32B9F436FC81C1232D20648A
:10073000322E19C036FE06C08AE0989E200D112484
:10074000922E11C0EAE02E9E200D1124222EF32DB0
:10075000F0623F2E08C08C3621F4832D8068382E3D
:1007600002C0883641F4F70193FD859193FF819192
:100770007F018111B3CF982F9F7D9554933028F43A
:100780000C5F1F4F9FE399830DC0833631F0833791
:1007900071F0833509F059C021C0F8018081898347
:1007A0000E5F1F4F88248394912C530113C028019E
:1007B000F2E04F0E511CF801A080B18036FE03C05C
:1007C000692D70E002C06FEF7FEFC5010E947006D7
:1007D0004C018201F32DFF773F2E16C0280122E045
:1007E000420E511CF801A080B18036FE03C0692D75
:1007F00070E002C06FEF7FEFC5010E945E064C0102
:10080000F32DF0683F2E820133FC1BC0822D90E057
:1008100088169906B0F4B60180E290E00E947B064B
:100820002A94F4CFF50137FC859137FE81915F0161
:10083000B60190E00E947B0621102A9421E0821AE2
:1008400091088114910471F7E8C0843611F089365B
:1008500041F5F80137FE07C0608171818281938183
:100860000C5F1F4F08C060817181072E000C880B40
:10087000990B0E5F1F4FF32DFF763F2E97FF09C098
:1008800090958095709561957F4F8F4F9F4FF06841
:100890003F2E2AE030E0A3010E94B706882E86187A
:1008A00045C0853731F4232D2F7EB22E2AE030E06B
:1008B00025C0932D997FB92E8F36C1F018F4883555
:1008C00079F0B5C0803719F0883721F0B0C0E92F32
:1008D000E061BE2EB4FE0DC0FB2DF460BF2E09C03A
:1008E00034FE0AC0292F2660B22E06C028E030E070
:1008F00005C020E130E002C020E132E0F801B7FE9F
:1009000007C060817181828193810C5F1F4F06C097
:100910006081718180E090E00E5F1F4FA3010E9413
:10092000B706882E8618FB2DFF773F2E36FE0DC0AA
:10093000232D2E7FA22E891458F434FE0BC032FCD6
:1009400009C0832D8E7EA82E05C0B82CA32C03C011
:10095000B82C01C0B92CA4FE0FC0FE01E80DF11D9A
:100960008081803321F49A2D997EA92E09C0A2FEA0
:1009700006C0B394B39404C08A2D867809F0B3946A
:10098000A3FC11C0A0FE06C0B21488F4280C922C5F
:100990009B180EC0B21460F4B60180E290E00E9491
:1009A0007B06B394F7CFB21418F42B1802C0982C1E
:1009B000212CA4FE10C0B60180E390E00E947B06CB
:1009C000A2FE17C0A1FC03C088E790E002C088E542
:1009D00090E0B6010CC08A2D867859F0A1FE02C0C5
:1009E0008BE201C080E2A7FC8DE2B60190E00E949C
:1009F0007B06891438F4B60180E390E00E947B0600
:100A00009A94F7CF8A94F301E80DF11D8081B60125
:100A100090E00E947B068110F5CF222009F442CE9F
:100A2000B60180E290E00E947B062A94F6CFF601A0
:100A30008681978102C08FEF9FEF2B96E2E10C94A5
:100A400031070F931F93CF93DF93869F8001879F7A
:100A5000100D969F100D1124C8010E943D05EC0158
:100A6000009729F0A80160E070E00E946906CE01BD
:100A7000DF91CF911F910F9108950F931F93CF9303
:100A8000DF938230910510F482E090E0E091C5019F
:100A9000F091C60120E030E0A0E0B0E0309719F11D
:100AA000408151810281138148175907C8F084178A
:100AB000950769F4109731F012960C9312971396DC
:100AC0001C9327C00093C5011093C60122C02115B5
:100AD000310519F04217530718F49A01BD01EF01CF
:100AE000DF01F801DBCF21153105F9F0281B390BA7
:100AF0002430310580F48A819B816115710521F0D4
:100B0000FB019383828304C09093C6018093C50147
:100B1000FE01329644C0FE01E20FF31F81939193D0
:100B200022503109398328833AC02091C301309182
:100B3000C401232B41F42091020130910301309331
:100B4000C4012093C30120910001309101012115BE
:100B5000310541F42DB73EB7409104015091050194
:100B6000241B350BE091C301F091C401E217F30798
:100B7000A0F42E1B3F0B2817390778F0AC014E5F0D
:100B80005F4F2417350748F04E0F5F1F5093C40185
:100B90004093C3018193919302C0E0E0F0E0CF0164
:100BA000DF91CF911F910F910895CF93DF9300971D
:100BB00009F481C0FC01329713821282A091C50111
:100BC000B091C601109781F420813181820F931F6B
:100BD0002091C3013091C4012817390751F5F093D2
:100BE000C401E093C30167C0ED0120E030E0CE17FF
:100BF000DF0740F44A815B819E0141155105F1F008
:100C0000EA01F5CFD383C28340815181840F951FC0
:100C1000C817D90759F488819981840F951F0296C6
:100C2000918380838A819B819383828321153105FF
:100C300029F4F093C601E093C5013DC0E901FB83AF
:100C4000EA8349915991C40FD51FEC17FD0761F450
:100C500080819181840F951F0296E9019983888391
:100C6000828193819B838A83E0E0F0E012968D91EC
:100C70009C911397009719F0FD01DC01F7CF8D913E
:100C80009C9111979D012E5F3F4F820F931F2091E2
:100C9000C3013091C4012817390769F4309729F44A
:100CA0001092C6011092C50102C013821282B09345
:100CB000C401A093C301DF91CF910895FC01059079
:100CC000615070400110D8F7809590958E0F9F1F4E
:100CD0000895DC0101C06D9341505040E0F7089544
:100CE000FC016150704001900110D8F780959095FB
:100CF0008E0F9F1F08950F931F93CF93DF93FB01D8
:100D0000238121FD03C08FEF9FEF2CC022FF16C06F
:100D100046815781248135814217530744F4A081CD
:100D2000B1819D012F5F3F4F318320838C932681BA
:100D300037812F5F3F4F3783268314C08B01EC012F
:100D4000FB010084F185E02D0995892BE1F6D8019E
:100D500016968D919C911797019617969C938E935A
:100D60001697CE01DF91CF911F910F910895FA014F
:100D7000AA27283051F1203181F1E8946F936E7FDA
:100D80006E5F7F4F8F4F9F4FAF4FB1E03ED0B4E0CB
:100D90003CD0670F781F891F9A1FA11D680F791F0C
:100DA0008A1F911DA11D6A0F711D811D911DA11D1D
:100DB00020D009F468943F912AE0269F112430192D
:100DC000305D3193DEF6CF010895462F4770405DC8
:100DD0004193B3E00FD0C9F7F6CF462F4F70405D77
:100DE0004A3318F0495D31FD4052419302D0A9F7D2
:100DF000EACFB4E0A6959795879577956795BA95CC
:100E0000C9F700976105710508959B01AC010A2E91
:100E100006945795479537952795BA95C9F7620F68
:100E2000731F841F951FA01D08952F923F924F920C
:100E30005F926F927F928F929F92AF92BF92CF926A
:100E4000DF92EF92FF920F931F93CF93DF93CDB773
:100E5000DEB7CA1BDB0B0FB6F894DEBF0FBECDBFEB
:100E600009942A88398848885F846E847D848C84BC
:100E70009B84AA84B984C884DF80EE80FD800C81C5
:100E80001B81AA81B981CE0FD11D0FB6F894DEBFA8
:0C0E90000FBECDBFED010895F894FFCF18
:100E9C000000C7012000FFFF53656E74206A6F7954
:100EAC00737469636B206469723A202564200A0D9F
:100EBC0000206D637032353135206973206E6F748C
:100ECC00206368616E67656420746F206465736964
:100EDC00726564206D6F646520210A0D004D4350CE
:100EEC00207375636365737366756C6C79206368C6
:100EFC00616E676564206D6F64650A0D00204D435B
:100F0C005032353135206973204E4F5420696E2094
:100F1C00636F6E66696775726174696F6E206D6F51
:100F2C006465206166746572207265736574202136
:100F3C000A0D004D435020696E20436F6E66696741
:080F4C002D6D6F64650A0D00B4
:00000001FF
