S00E00004E6F646520322E737265633E
S214080000B80800207D030800790308007903080073
S2140800107903080079030800790308000000000047
S214080020000000000000000000000000790308003F
S2140800307903080000000000790308007903080027
S2140800407903080079030800790308007903080093
S2140800507903080079030800790308007903080083
S2140800600D0908007903080000000000790308005D
S21408007079030800790308007903080000000000E7
S21408008000000000790308007903080079030800D7
S2140800907903080079030800790308007903080043
S2140800A079030800000000007903080079030800B7
S2140800B07903080079030800790308007903080023
S2140800C07903080079030800790308007903080013
S2140800D07903080079030800790308007903080003
S2140800E0790308007903080079030800D902080094
S2140800F07903080010B5054C237833B9044B13B1BF
S2140801000448AFF300800123237010BD3404002098
S21408011000000000840B08000C4B43B10C4810B5D7
S2140801200C49AFF300800C48036823B910BD0A4891
S214080130036833B97047094B002BF7D0BDE8104069
S2140801401847064B002BF5D0184700BF00000000E4
S214080150840B080038040020840B08000000000008
S214080160F0B45718082FD4BF00230123082998BFD6
S214080170082A5CD80D46002B59D12E4A136823F05E
S2140801800103136013692C4B4FF440745C641C6FB6
S21408019024F003041C6703245C605C66A3F5006314
S2140801A0264CC3F80C41D3F8004144F40064C3F865
S2140801B000415061002419E01E4801F110035B015C
S2140801C0C2180026566000EB41124FF00056C2F8DF
S2140801D008624FF08076C650D2F81C3243F400030B
S2140801E0C2F81C3201238B401C430131B942E3DDBF
S2140801F000230DE00F4901EB43124FF00050C2F800
S214080200080203F1100252014FF040708850013383
S214080210AB42EFDB074B5C604FF40061084A516065
S2140802201A6842F001021A600020F0BC70470120EC
S214080230FBE700BF00400B40000E0E402B100010DE
S21408024000E100E008B502220121014B984708BDED
S214080250610108004B0103F1402303F53023D3F86E
S214080260103213F4000F33D070B44B0103F140235F
S21408027003F53023D3F81442D3F81822D3F80852DB
S214080280C5F38A450580D3F81052C5F30345857033
S214080290002303E0C618F270120A0133AB4205DAEF
S2140802A0032BF7DCC618F470240AF6E7094B01F1AD
S2140802B0100252014FF08070985003EB4111D1F8AC
S2140802C01C3243F40003C1F81C32002070BC70478F
S2140802D00120704700400B4030B585B01F4B1D69A4
S2140802E015F0060F2CD015F0020F08D115F0040FE4
S2140802F01DD0022101A81A4B984700231CE00121B3
S21408030001A8174B9847002408E004AB234413F8C9
S214080310092C21461348144B984701349DF806309B
S2140803209C42F2DB9DF80700104B9847E5E710481B
S2140803300D4B9847E1E701339DF806209342FADB18
S21408034015F0010F02D00122044B9A604FF40062A8
S214080350084BC3F8842105B030BD00BF00400B40F1
S21408036055020800E40A08005D080800A105080010
S214080370F80A080000E100E0FEE7000008B5114BA7
S214080380114A9A4209D00F4B0F4A03E011681960C8
S214080390043304320D498B42F8D30D4B02E0002299
S2140803A01A6004330B4A9342F9D30B4B23F060438D
S2140803B023F07F03094A9360094B9847094B9847EF
S2140803C0FEE700BF00000020840B0800340400206D
S2140803D034040020B80400200000080000ED00E007
S2140803E0750908008D0408004FF48063204A1360DE
S2140803F002F5007213601F4B1B6A13F0807F07D14B
S2140804001D4A1C4B1A621B4B9B6E13F0010FFAD049
S2140804101A4A184B1A62174B9B6E13F4803FFAD091
S214080420144A136B23F0030343F001031363114BC1
S2140804309B6E13F0080FFAD0114A0E4B9A620D4BBA
S2140804409B6E13F0020FFAD011220A4B1A63094B5F
S2140804509B6E13F0080FFAD01222064B1A63054B50
S2140804609B6E13F0080FFAD0064A074B1A607047BF
S214080470000A0E4000060E40090837000908370132
S214080480013F0D2000BD01050000002008B50B4BFC
S21408049098470B4B98470B480B4B98470B4B98477E
S2140804A04FF400420A4B5A60A3F545634FF4C01256
S2140804B01A614FF400221A63FEE700BFE90308003A
S2140804C0810808005512140145020800D5040800E2
S2140804D0501A0E40214AD2F8003143F01003C2F8F1
S2140804E000311F4B5A6842F400225A605A6842F498
S2140804F080225A601A6F42F400221A671A6F42F472
S21408050080221A67174A136843F0070313602032DD
S214080510136843F007031360134B1A6843F2453118
S2140805200A431A60114A13680B431360283A136883
S21408053043F4435343F0350313602032136843F4FF
S214080540375343F022031360094B5A6842F02002DF
S2140805505A605A6842F040025A60704700060E40D9
S21408056000120E40A0420940AC420940CC42094065
S21408057000400940074B03FB00F000F5A01000F50B
S214080580D260054BA3FB00304009044B18602033AB
S21408059018607047BCCCFFFF1F85EB51A842094086
S2140805A010B5064CA4FB003424090534214604483B
S2140805B0044B98472046044B984710BDCDCCCCCC6E
S2140805C0240B08005D0808007505080008B5C8B2C1
S2140805D0014B984708BD00BFE90808002DE9F0411F
S2140805E007460E46151E02DD0A46002104E04FF0B7
S2140805F020080EE00131013210780028FAD1A9420D
S21408060001DA6D1A00E0002513F0020F06D14FF04C
S214080610200813F001040AD0002410E04FF0300838
S214080620F7E7414638460D4B98470134013D002D03
S214080630F7DC04E03846094B984701340136317830
S2140806400029F7D105E041463846044B984701345F
S214080650013D002DF7DC2046BDE8F081CD050800F9
S214080660F0B585B007460C9851B11E460C4613B136
S2140806700A2A12D0002604AD002305F8013D18E02A
S21408068030238DF8043000238DF805300B9B0A9A2A
S21408069001A938461B4CA04729E0002901DB0026A3
S2140806A0E9E74C420126E6E7303305F8013DB4FB9E
S2140806B0F2F44CB1B4FBF2F302FB1343092BF3DD5F
S2140806C0A0F13A010B44EFE756B10A9B1BB10B9B0E
S2140806D013F0020F0DD12D2305F8013C013D00262D
S2140806E00B9B0A9A29463846064CA047304405B064
S2140806F0F0BD2D213846044B98470A9B013B0A93C8
S214080700EEE700BFDD050800CD050800F0B589B0A6
S21408071006460C460592002581E0A21C01238BE0C4
S214080720013443F002032278302AF9D0002206E08A
S21408073002EB82025000A1F1300202440134217813
S214080740A1F13000C0B20928F2D9732918D064295B
S21408075022D078292FD058293CD0752949D063292A
S2140807605CD10599081D059009788DF81C100021A4
S2140807708DF81D1007A93046344FB84705444DE09C
S2140807800599081D0590096821B130462F4FB847CE
S214080790054443E02E49F8E70599081D05900968C1
S2140807A0612002900193009201230A223046294FC5
S2140807B0B847054432E00599081D05900968612088
S2140807C0029001930092002310223046214FB8472A
S2140807D0054423E00599081D059009684120029004
S2140807E0019300920023102230461A4FB84705445A
S2140807F014E00599081D0590096861200290019388
S214080800009200230A223046124FB847054405E0F6
S214080810144621783046104B984701350134237822
S21408082063B1252BF5D1621C63783BB1252BEFD03D
S2140808302D2B3FF472AF0023144674E716B13368C5
S21408084000221A70284609B0F0BD00BFDD05080072
S214080850340B080061060800CD0508000FB400B583
S21408086083B004AA52F8041B01920020034B984751
S21408087003B05DF804EB04B0704700BF0D0708002E
S214080880164B00221A705A70154B4FF44071596473
S21408089059601A6F186F024022F440721A67596638
S2140808A04FF48072A3F500631A6103F50073AC2158
S2140808B0196040F2232119624FF40061596040F232
S2140808C00221C3F820114FF0FF31D960E121996069
S2140808D004490A6050221A60704700BF500400207E
S2140808E0000E0E4000E100E0074B5B6913F0020FB4
S2140808F008D0054BD861044B5B6913F4007FFAD027
S214080900002070470120704700080E4008B5154BB8
S2140809105B6913F0E00F03D04FF4A871114A116019
S21408092013F0010F12D010484278531C594203F0B6
S2140809303F0301F03F0158BF4B4201788B4206D077
S2140809400849886908490A4490704B7008BD0748EA
S214080950074B9847044B5978024A92690B449A7099
S21408096008BD00BF00080E40500400203C0B0800DD
S2140809705D08080070B50F4E0F4D761BB61018BFF1
S214080980002405D0013455F8043B9847A642F9D10F
S2140809900A4E0B4D00F0E4F8761BB61018BF00247C
S2140809A006D0013455F8043B9847A642F9D170BDE5
S2140809B070BD00BF6C0B08006C0B0800740B0800B9
S2140809C06C0B0800024B13B1024800F005B87047DC
S2140809D000000000E5090800002301461A461846EC
S2140809E000F01EB838B50A4C0A4D641BA4100AD08D
S2140809F004F18043013B05EB8305013C55F80439B7
S214080A009847002CF9D1BDE8384000F0B3B800BFCD
S214080A10840B0800800B0800704700BF704700BFB3
S214080A202DE9F8432C4D0646286898460F46914609
S214080A30FFF7F2FF294B1C68D4F84831002B3ED04C
S214080A405A681F2A1CDC02F1010E76B1012103EB5D
S214080A508204C4F88890D3F8880191400843022E8F
S214080A60C3F88801C4F8088123D00232C3F804E02A
S214080A70286843F82270FFF7D1FF0020BDE8F88306
S214080A80174B0BB34FF4C870AFF300800346D8B1CA
S214080A900020D4F848114FF0010E5860196002463D
S214080AA0C4F84831C3F88801C3F88C01002EDCD09E
S214080AB0CCE7D3F88C010143C3F88C11D5E704F5CD
S214080AC0A673C4F84831BBE72868FFF7A7FF4FF0BE
S214080AD0FF30BDE8F88300BF300400205C0B080038
S214080AE000000000646174615B25645D203A20257F
S214080AF064200A0D0000000043414E30206D6573E7
S214080B0073616765206172726976656420696E2014
S214080B106E6F6E2D75736564206D61696C626F7893
S214080B200A0D00006475747963756C636520256426
S214080B30200A0D00286E756C6C2900004552523A42
S214080B4020554152542052582062756666657220B8
S214080B5069732066756C6C0A0D000000080000209A
S214080B60F8B500BFF8BC08BC9E467047C509080023
S214080B7019010800F8B500BFF8BC08BC9E467047C7
S208080B80F500080067
S214080B8400093D000000000000000000F4020020F8
S214080B945C030020C40300200000000000000000DE
S214080BA40000000000000000000000000000000034
S214080BB40000000000000000000000000000000024
S214080BC40000000000000000000000000000000014
S214080BD40000000000000000000000000000000004
S214080BE400000000000000000000000000000000F4
S214080BF400000000000000000000000000000000E4
S214080C0400000000000000000000000000000000D3
S214080C1400000000000000000000000000000000C3
S214080C2400000000000000000000000000000000B3
S214080C3401000000000000000E33CDAB34126DE650
S214080C44ECDE05000B0000000000000000000000B9
S214080C540000000000000000000000000000000083
S214080C640000000000000000000000000000000073
S214080C740000000000000000000000000000000063
S214080C840000000000000000000000000000000053
S208080FB49404002074
S804080000F3
