S00E00004E6F646520322E737265633E
S214080000D0080020510408004D0408004D040800DC
S2140800104D0408004D0408004D04080000000000C8
S2140800200000000000000000000000004D0408006A
S2140800304D040800000000004D0408004D040800A8
S2140800404D0408004D0408004D0408004D0408003F
S2140800504D0408004D0408004D0408004D0408002F
S214080060090E08004D040800000000004D040800B2
S2140800704D0408004D0408004D0408000000000068
S214080080000000004D0408004D0408004D04080058
S2140800904D0408004D0408004D0408004D040800EF
S2140800A04D040800000000004D0408004D04080038
S2140800B0050808004D0408004D0408004D04080013
S2140800C04D0408004D0408004D0408004D040800BF
S2140800D04D0408004D0408004D0408004D040800AF
S2140800E04D0408004D0408004D040800910308005C
S2140800F04D04080010B5054C237833B9044B13B1EA
S2140801000448AFF300800123237010BD3404002098
S21408011000000000641808000C4B43B10C4810B5EA
S2140801200C49AFF300800C48036823B910BD0A4891
S214080130036833B97047094B002BF7D0BDE8104069
S2140801401847064B002BF5D0184700BF00000000E4
S214080150641808003804002064180800000000002E
S2140801604FF48052014B1A61704700BF00120E40D0
S21408017020B94FF48052044B1A6370474FF48052EC
S214080180014B5A63704700BF00120E40F0B4571870
S214080190082FD4BF00230123082998BF082A5CD853
S2140801A00D46002B59D12E4A136823F0010313601D
S2140801B013692C4B4FF440745C641C6F24F00304E2
S2140801C01C6703245C605C66A3F50063264CC3F8D2
S2140801D00C41D3F8004144F40064C3F80041506170
S2140801E0002419E01E4801F110035B01C21800261E
S2140801F0566000EB41124FF00056C2F808624FF006
S2140802008076C650D2F81C3243F40003C2F81C327B
S21408021001238B401C430131B942E3DD00230DE086
S2140802200F4901EB43124FF00050C2F8080203F1E1
S214080230100252014FF0407088500133AB42EFDB9A
S214080240074B5C604FF40061084A51601A6842F038
S21408025001021A600020F0BC70470120FBE700BFCF
S21408026000400B40000E0E402B10001000E100E08E
S21408027008B502220121014B984708BD8D010800E8
S2140802804B0103F1402303F53023D3F8103213F45F
S214080290000F36D003881C4A02EA834242F0005216
S2140802A04B0103F1402303F53023C3F80822837873
S2140802B0072B01D907238370827943791B0443EA05
S2140802C00263027943EA0223C2781343490101F123
S2140802D0402101F53021C1F81432827A437A1B0492
S2140802E043EA0263027A43EA0223C2791343C1F857
S2140802F0183283781B0443F40003C1F81C3200202C
S21408030070470120704700BF0000FC1F4B0103F137
S214080310402303F53023D3F8103213F4000F33D0FC
S21408032070B44B0103F1402303F53023D3F814428D
S214080330D3F81822D3F80852C5F38A450580D3F8AF
S2140803401052C5F303458570002303E0C618F27003
S214080350120A0133AB4205DA032BF7DCC618F47031
S214080360240AF6E7094B01F1100252014FF080709B
S214080370985003EB4111D1F81C3243F40003C1F83E
S2140803801C32002070BC70470120704700400B40AC
S21408039010B584B0234B1C6914F0060F34D014F043
S2140803A0020F08D114F0040F25D0022101A81E4B15
S2140803B09847002324E0012101A81B4B98479DF885
S2140803C007001A4B98479DF80800194B98479DF860
S2140803D00900184B98479DF80900174B98470023C3
S2140803E000E001339DF806209342FADB9DF80800EA
S2140803F0124B9847DDE71248124B9847D9E7013366
S2140804009DF806209342FADB14F0010F02D0012271
S214080410044B9A604FF400620B4BC3F8842104B077
S21408042010BD00BF00400B400D0308002106080061
S2140804302D0608003906080071010800DD090800C5
S214080440C4170800590D080000E100E0FEE70000A8
S21408045008B5114B114A9A4209D00F4B0F4A03E0D0
S21408046011681960043304320D498B42F8D30D4BDA
S21408047002E000221A6004330B4A9342F9D30B4B6E
S21408048023F0604323F07F03094A9360094B98479B
S214080490094B9847FEE700BF0000002064180800D4
S2140804A03404002034040020CC0400200000080097
S2140804B000ED00E055160800610508004FF480635B
S2140804C0204A136002F5007213601F4B1B6A13F074
S2140804D0807F07D11D4A1C4B1A621B4B9B6E13F07C
S2140804E0010FFAD01A4A184B1A62174B9B6E13F470
S2140804F0803FFAD0144A136B23F0030343F001033A
S2140805001363114B9B6E13F0080FFAD0114A0E4B6B
S2140805109A620D4B9B6E13F0020FFAD011220A4B0B
S2140805201A63094B9B6E13F0080FFAD01222064B7B
S2140805301A63054B9B6E13F0080FFAD0064A074B52
S2140805401A607047000A0E4000060E400908370079
S21408055009083701013F0D2000BD010500000020F5
S21408056008B51D4B98471D4B98471D481D4B984787
S2140805701D4B98471D4B98471D4B98471D4B984752
S2140805801D4B98471D4B98474FF400421C4B5A602A
S214080590A3F545634FF4C0121A614FF400221A639C
S2140805A00120184B984702E01748184B9847184BF5
S2140805B09847184B98470028F6D01748134B984783
S2140805C001230020C37083704FF60F730380014623
S2140805D0124B9847EBE700BFBD0408007D0D0800E6
S2140805E05512140171020800FD09080011090800D7
S2140805F0AD08080025070800E9060800610108009C
S214080600501A0E405106080004180800590D080034
S2140806107D070800F9080800F0170800810208009E
S214080620014B1870704700BF50040020014B5870EB
S214080630704700BF50040020014B9870704700BFF9
S21408064050040020014B1878704700BF5004002063
S21408065020B94FF40072044B5A6370474FF4007287
S214080660014B1A63704700BF00140E4020B94FF4C0
S2140806708062044B5A6370474FF48062014B1A63DA
S214080680704700BF00140E40024B02225A631A63DA
S214080690704700BF00140E402DE9F8430E4D0127A1
S2140806A06F634FF00409C5F830901420DFF83480E3
S2140806B0C0470A4EF46BC4F34704C5F834901420B8
S2140806C0C047F66BFE40064B984744EA06202F6361
S2140806D080B2BDE8F88300BF00140E4000120E403A
S2140806E089060800910A08000C4AD2F8003143F03F
S2140806F04003C2F8003102F52062536843F48033A1
S2140807005360074B5A6842F480325A605A685A60F7
S2140807101A6942F002021A61704700BF00060E40CE
S21408072000800C4008B50C4B98470C4A136943F4F4
S21408073000531361D2F80C3143F0805343F00D0395
S214080740C2F80C3140F20762054B1A614FF4FF728B
S214080750A3F500735A6108BDE906080000060E40B6
S21408076000140E40C0EBC00083001A460BB103F518
S2140807708C62014B1A62704700800C4010B5094B1A
S2140807809847044680EAE070A0EBE470064B98476A
S214080790002C03DB0120054B984710BD0020034BB7
S2140807A0984710BD99080800650708006D060800F8
S2140807B010B5104B1A685A601A6899680A449A6005
S2140807C00D4B9847044642F21073984200D900240D
S2140807D00A4B98476FF0630303FB04F3084A82FB4F
S2140807E00312DB17C3EBE2236433C01A014B18600D
S2140807F010BD00BF540400209906080045060800EE
S2140808007987303A08B5024B1B68024B984708BDF3
S21408081060000840B10708002DE97043164C2068B0
S214080820164EB047164D10A3D3E90023A8478046B6
S2140808308946A068B0470EA3D3E90023A84700223C
S214080840104BA8470022104B104DA84702460B46EF
S214080850404649460E4DA8470E4B9847E060BDE80F
S214080860708300BFAFF300809A9999999999E93FE8
S2140808709A9999999999B93F540400201511080036
S214080880E11108000000594000408F403514080068
S2140808907D0E08000516080008B5024B9847024B5F
S2140808A0D86808BD19080800540400200D4AD2F874
S2140808B0003143F02003C2F8003102F500625368A5
S2140808C043F004035360084B1A6942F001021A61A8
S2140808D05A6842F080025A601A6842F002021A60A9
S2140808E0704700BF00060E4000000C40014B186D14
S2140808F0704700BF00000C4008B5044B9847B0F599
S214080900FA7F01D3002008BD012008BDED080800C5
S214080910214AD2F8003143F01003C2F800311F4BC9
S2140809205A6842F400225A605A6842F480225A6092
S2140809301A6F42F400221A671A6F42F480221A6766
S214080940174A136843F0070313602032136843F00E
S21408095007031360134B1A6843F245310A431A60BB
S214080960114A13680B431360283A136843F4435339
S21408097043F0350313602032136843F4375343F0CB
S21408098022031360094B5A6842F020025A605A68DC
S21408099042F040025A60704700060E4000120E40B1
S2140809A0A0420940AC420940CC42094000400940F8
S2140809B0074B03FB00F000F5A01000F5D260054BCE
S2140809C0A3FB00304009044B1860203318607047BA
S2140809D0BCCCFFFF1F85EB51A842094008B5C0F103
S2140809E06400044BA3FB003000090530024B98470F
S2140809F008BD00BFCDCCCCCCB10908001E4BD3F83F
S214080A000C2142F08052C3F80C211A6942F00062A9
S214080A101A611A4A116841F400411160116841F0E0
S214080A204001116016490A6842F001020A604FF058
S214080A308051144A11601A690A431A61A3F5C02343
S214080A40A3F2BC531A6842F400421A601A6842F0CD
S214080A5002021A601A6842F480421A600A4A136848
S214080A6043F0050313601022084B1A6046F28A62A8
S214080A70083B1A60704700BF00060E400400084096
S214080A800000084000E100E040000840640008401C
S214080A900A4B1A681A60292218331A6000220AE0DC
S214080AA007490B6843F004030B60064B1B6813F0FA
S214080AB0100FFAD001328242F2DB70470400084079
S214080AC0000008402000084008B5C8B2014B984707
S214080AD008BD00BFE50D08002DE9F04107460E46A3
S214080AE0151E02DD0A46002104E04FF020080EE03D
S214080AF00131013210780028FAD1A94201DA6D1ABC
S214080B0000E0002513F0020F06D14FF0200813F07E
S214080B1001040AD0002410E04FF03008F7E74146F9
S214080B2038460D4B98470134013D002DF7DC04E0AC
S214080B303846094B98470134013631780029F7D1F1
S214080B4005E041463846044B98470134013D002DE0
S214080B50F7DC2046BDE8F081C90A0800F0B585B084
S214080B6007460C9851B11E460C4613B10A2A12D0F5
S214080B70002604AD002305F8013D18E030238DF863
S214080B80043000238DF805300B9B0A9A01A93846D5
S214080B901B4CA04729E0002901DB0026E9E74C4268
S214080BA00126E6E7303305F8013DB4FBF2F44CB114
S214080BB0B4FBF2F302FB1343092BF3DDA0F13A0171
S214080BC00B44EFE756B10A9B1BB10B9B13F0020FC1
S214080BD00DD12D2305F8013C013D00260B9B0A9AF2
S214080BE029463846064CA047304405B0F0BD2D21AE
S214080BF03846044B98470A9B013B0A93EEE700BF2A
S214080C00D90A0800C90A0800F0B589B006460C4695
S214080C100592002581E0A21C01238BE0013443F0F5
S214080C2002032278302AF9D0002206E002EB82027C
S214080C305000A1F13002024401342178A1F13000BD
S214080C40C0B20928F2D9732918D0642922D0782985
S214080C502FD058293CD0752949D063295CD10599ED
S214080C60081D059009788DF81C1000218DF81D10B8
S214080C7007A93046344FB84705444DE00599081D86
S214080C800590096821B130462F4FB847054443E020
S214080C902E49F8E70599081D059009686120029015
S214080CA00193009201230A223046294FB84705448B
S214080CB032E00599081D05900968612002900193A5
S214080CC00092002310223046214FB847054423E0FF
S214080CD00599081D05900968412002900193009225
S214080CE00023102230461A4FB847054414E00599E9
S214080CF0081D059009686120029001930092002360
S214080D000A223046124FB847054405E014462178B3
S214080D103046104B984701350134237863B1252BAC
S214080D20F5D1621C63783BB1252BEFD02D2B3FF411
S214080D3072AF0023144674E716B1336800221A709F
S214080D40284609B0F0BD00BFD90A080014180800E4
S214080D505D0B0800C90A08000FB400B583B004AAE2
S214080D6052F8041B01920020034B984703B05DF825
S214080D7004EB04B0704700BF090C0800164B0022AD
S214080D801A705A70154B4FF44071596459601A6FAF
S214080D90186F024022F440721A6759664FF4807240
S214080DA0A3F500631A6103F50073AC21196040F2DD
S214080DB0232119624FF40061596040F20221C3F8FA
S214080DC020114FF0FF31D960E121996004490A608B
S214080DD050221A60704700BF64040020000E0E40C0
S214080DE000E100E0074B5B6913F0020F08D0054BE3
S214080DF0D861044B5B6913F4007FFAD00020704773
S214080E000120704700080E4008B5154B5B6913F0C3
S214080E10E00F03D04FF4A871114A116013F0010FC8
S214080E2012D010484278531C594203F03F0301F091
S214080E303F0158BF4B4201788B4206D00849886963
S214080E4008490A4490704B7008BD0748074B9847F6
S214080E50044B5978024A92690B449A7008BD00BF41
S214080E6000080E40640400201C180800590D0800ED
S214080E7081F0004102E000BF83F0004330B54FEA3E
S214080E8041044FEA430594EA050F08BF90EA020FAB
S214080E901FBF54EA000C55EA020C7FEA645C7FEA3E
S214080EA0655C00F0E2804FEA5454D4EB5555B8BF61
S214080EB06D420CDD2C4480EA020281EA030382EAD2
S214080EC0000083EA010180EA020281EA0303362D64
S214080ED088BF30BD11F0004F4FEA01314FF4801C37
S214080EE04CEA113102D0404261EB410113F0004F49
S214080EF04FEA03334CEA133302D0524263EB430300
S214080F0094EA050F00F0A780A4F10104D5F1200E9D
S214080F100DDB02FA0EFC22FA05F2801841F10001F8
S214080F2003FA0EF2801843FA05F359410EE0A5F1CC
S214080F3020050EF1200E012A03FA0EFC28BF4CF0FD
S214080F40020C43FA05F3C01851EBE37101F00045B3
S214080F5007D54FF0000EDCF1000C7EEB00006EEBC0
S214080F600101B1F5801F1BD3B1F5001F0CD349084A
S214080F705FEA30004FEA3C0C04F101044FEA4452A1
S214080F8012F5800F80F09A80BCF1004F08BF5FEA28
S214080F90500C50F1000041EB045141EA050130BD08
S214080FA05FEA4C0C404141EB010111F4801FA4F1AB
S214080FB00104E9D191F0000F04BF01460020B1FA00
S214080FC081F308BF2033A3F10B03B3F120020CDA38
S214080FD00C3208DD02F1140CC2F10C0201FA0CF016
S214080FE021FA02F10CE002F11402D8BFC2F1200C7B
S214080FF001FA02F120FA0CFCDCBF41EA0C01904031
S214081000E41AA2BF01EB0451294330BD6FEA040479
S2140810101F3C1CDA0C340EDC04F11404C4F1200264
S21408102020FA04F001FA02F340EA030021FA04F376
S21408103045EA030130BDC4F10C04C4F1200220FACD
S21408104002F001FA04F340EA0300294630BD21FA0B
S21408105004F0294630BD94F0000F83F4801306BFD1
S21408106081F480110134013D4EE77FEA645C18BFC5
S2140810707FEA655C29D094EA050F08BF90EA020F5C
S21408108005D054EA000C04BF1946104630BD91EA54
S214081090030F1EBF0021002030BD5FEA545C05D157
S2140810A04000494128BF41F0004130BD14F5800496
S2140810B03CBF01F5801130BD01F0004545F0FE410A
S2140810C041F470014FF0000030BD7FEA645C1ABF3F
S2140810D0194610467FEA655C1CBF0B46024650EA76
S2140810E0013406BF52EA033591EA030F41F40021A2
S2140810F030BD00BF90F0000F04BF0021704730B528
S2140811004FF4806404F132044FF000054FF00001FC
S21408111050E700BF90F0000F04BF0021704730B5BD
S2140811204FF4806404F1320410F0004548BF404292
S2140811304FF000013EE700BF42004FEAE2014FEAE7
S21408114031014FEA02701FBF12F07F4393F07F4FC2
S21408115081F06051704792F0000F14BF93F07F4FF4
S214081160704730B54FF4607401F0004521F0004137
S21408117020E700BF50EA010208BF704730B54FF0BD
S21408118000050AE050EA010208BF704730B511F0C2
S214081190004502D5404261EB41014FF4806404F1FA
S2140811A032045FEA915C3FF4DCAE4FF003025FEA7C
S2140811B0DC0C18BF03325FEADC0C18BF033202EB04
S2140811C0DC02C2F1200300FA03FC20FA02F001FA5E
S2140811D003FE40EA0E0021FA02F11444C1E600BFFD
S2140811E070B54FF0FF0C4CF4E06C1CEA11541DBFB0
S2140811F01CEA135594EA0C0F95EA0C0F00F0DEF87B
S2140812002C4481EA030621EA4C5123EA4C5350EA5F
S214081210013518BF52EA033541F4801143F48013B0
S21408122038D0A0FB02CE4FF00005E1FB02E506F041
S2140812300042E0FB03E54FF00006E1FB03569CF096
S214081240000F18BF4EF0010EA4F1FF04B6F5007F9C
S21408125064F5407404D25FEA4E0E6D4146EB06060E
S21408126042EAC62141EA55514FEAC52040EA5E5097
S2140812704FEACE2EB4F1FD0C88BFBCF5E06F1ED841
S214081280BEF1004F08BF5FEA500E50F1000041EB78
S214081290045170BD06F0004646EA010140EA020025
S2140812A081EA0301B4EB5C04C2BFD4EB0C0541EA47
S2140812B0045170BD41F480114FF0000E013C00F35C
S2140812C0AB8014F1360FDEBF002001F0004170BD80
S2140812D0C4F10004203C35DA0C341BDC04F1140499
S2140812E0C4F1200500FA05F320FA04F001FA05F225
S2140812F040EA020001F0004221F0004110EBD370F2
S21408130021FA04F642EB06015EEA430E08BF20EA1D
S214081310D37070BDC4F10C04C4F1200500FA04F3C0
S21408132020FA05F001FA04F240EA020001F0004152
S21408133010EBD37041F100015EEA430E08BF20EAC5
S214081340D37070BDC4F1200500FA05F24EEA020E0D
S21408135020FA04F301FA05F243EA020321FA04F03C
S21408136001F0004121FA04F220EA020000EBD370F3
S2140813705EEA430E08BF20EAD37070BD94F0000FF3
S2140813800FD101F00046400041EB010111F4801F27
S21408139008BF013CF7D041EA060195F0000F18BFD8
S2140813A0704703F00046520043EB030313F4801F14
S2140813B008BF013DF7D043EA0603704794EA0C0FCE
S2140813C00CEA135518BF95EA0C0F0CD050EA4106E4
S2140813D018BF52EA4306D1D181EA030101F0004161
S2140813E04FF0000070BD50EA410606BF1046194689
S2140813F052EA430619D094EA0C0F02D150EA013695
S21408140013D195EA0C0F05D152EA03361CBF1046D5
S21408141019460AD181EA030101F0004141F0FE4174
S21408142041F470014FF0000070BD41F0FE4141F4F8
S214081430780170BD70B54FF0FF0C4CF4E06C1CEAF8
S21408144011541DBF1CEA135594EA0C0F95EA0C0FAD
S21408145000F0A7F8A4EB050481EA030E52EA033568
S2140814604FEA013100F088804FEA03334FF0805589
S21408147045EA131343EA12634FEA022245EA1115B6
S21408148045EA10654FEA00260EF000419D4208BF67
S214081490964244F1FD0404F5407402D25B084FEA14
S2140814A03202B61A65EB03055B084FEA32024FF4C0
S2140814B080104FF4002CB6EB020E75EB030E22BF1D
S2140814C0B61A754640EA0C005B084FEA3202B6EBDD
S2140814D0020E75EB030E22BFB61A754640EA5C008C
S2140814E05B084FEA3202B6EB020E75EB030E22BF1C
S2140814F0B61A754640EA9C005B084FEA3202B6EB1D
S214081500020E75EB030E22BFB61A754640EADC00DB
S21408151055EA060E18D04FEA051545EA16754FEA3D
S21408152006164FEAC30343EA52734FEAC2025FEA5B
S2140815301C1CC0D111F4801F0BD141EA00014FF0EA
S21408154000004FF0004CB6E711F4801F04BF0143BB
S2140815500020B4F1FD0C88BFBCF5E06F3FF6AFAED7
S214081560B5EB030C04BFB6EB020C5FEA500C50F167
S214081570000041EB045170BD0EF0004E4EEA1131EA
S21408158014EB5C04C2BFD4EB0C0541EA045170BDF1
S21408159041F480114FF0000E013C90E645EA060E35
S2140815A08DE60CEA135594EA0C0F08BF95EA0C0F63
S2140815B03FF43BAF94EA0C0F0AD150EA01347FF4AB
S2140815C034AF95EA0C0F7FF425AF104619462CE782
S2140815D095EA0C0F06D152EA03353FF4FDAE1046E5
S2140815E0194622E750EA410618BF52EA43067FF436
S2140815F0C5AE50EA41047FF40DAF52EA43057FF4C6
S214081600EBAE12E74FEA410212F5001215D211D5D9
S2140816106FF47873B3EB625212D94FEAC12343F0E2
S214081620004343EA505311F0004F23FA02F018BF64
S214081630404270474FF00000704750EA013005D12D
S21408164011F0004008BF6FF0004070474FF00000F0
S214081650704700BF70B50F4E0F4D761BB61018BFFB
S214081660002405D0013455F8043B9847A642F9D122
S2140816700A4E0B4D00F0E4F8761BB61018BF00248F
S21408168006D0013455F8043B9847A642F9D170BDF8
S21408169070BD00BF4C1808004C1808005418080005
S2140816A04C180800024B13B1024800F005B8704702
S2140816B000000000C5160800002301461A46184612
S2140816C000F01EB838B50A4C0A4D641BA4100AD0A0
S2140816D004F18043013B05EB8305013C55F80439CA
S2140816E09847002CF9D1BDE8384000F0B3B800BFE1
S2140816F06418080060180800704700BF704700BFED
S2140817002DE9F8432C4D0646286898460F4691461C
S214081710FFF7F2FF294B1C68D4F84831002B3ED05F
S2140817205A681F2A1CDC02F1010E76B1012103EB70
S2140817308204C4F88890D3F8880191400843022EA2
S214081740C3F88801C4F8088123D00232C3F804E03D
S214081750286843F82270FFF7D1FF0020BDE8F88319
S214081760174B0BB34FF4C870AFF300800346D8B1DD
S2140817700020D4F848114FF0010E58601960024650
S214081780C4F84831C3F88801C3F88C01002EDCD0B1
S214081790CCE7D3F88C010143C3F88C11D5E704F5E0
S2140817A0A673C4F84831BBE72868FFF7A7FF4FF0D1
S2140817B0FF30BDE8F88300BF300400203C1808005E
S2140817C00000000043414E30206D65737361676505
S2140817D0206172726976656420696E206E6F6E2D60
S2140817E075736564206D61696C626F780A0D000018
S2140817F04865792C20796F75206C6F7374210A0DF3
S214081800000000005374696C6C20706C6179696E16
S214081810670A0D00286E756C6C2900004552523A0E
S21408182020554152542052582062756666657220CB
S21408183069732066756C6C0A0D00000008000020AD
S214081840F8B500BFF8BC08BC9E467047A516080049
S21408185019010800F8B500BFF8BC08BC9E467047DA
S208081860F50008007A
S21408186400093D000000000000000000F40200200B
S2140818745C030020C40300200000000000000000F1
S2140818840000000000000000000000000000000047
S2140818940000000000000000000000000000000037
S2140818A40000000000000000000000000000000027
S2140818B40000000000000000000000000000000017
S2140818C40000000000000000000000000000000007
S2140818D400000000000000000000000000000000F7
S2140818E400000000000000000000000000000000E7
S2140818F400000000000000000000000000000000D7
S21408190400000000000000000000000000000000C6
S21408191401000000000000000E33CDAB34126DE663
S214081924ECDE05000B0000000000000000000000CC
S2140819340000000000000000000000000000000096
S2140819440000000000000000000000000000000086
S2140819540000000000000000000000000000000076
S2140819640000000000000000000000000000000066
S208081C94A804002073
S804080000F3
