:100000000C9438000C9442000C9442000C94420072
:100010000C9442000C9442000C9442000C94420058
:100020000C9442000C9442000C9442000C94420048
:100030000C9442000C9442000C9442000C94420038
:100040000C9442000C9442000C9442000C94420028
:100050000C9442000C9442000C9442000C94420018
:100060000C9442000C9442000C9442000C94420008
:1000700011241FBECFEFD4E0DEBFCDBF0E944400ED
:100080000C9455000C9400008AB381608ABB9BB32A
:1000900081E089278BBB2FEF8FEF9DE121508040BE
:0E00A0009040E1F700C00000F2CFF894FFCFCF
:00000001FF
