:100000000C94B4010C94D1010C94D1010C94D10145
:100010000C94D1010C94D1010C94D1010C94D10118
:100020000C94D1010C94D1010C94D1010C94D10108
:100030000C94D1010C94D1010C94D1010C94D101F8
:100040000C94D1010C94D1010C94D1010C94D101E8
:100050000C94D1010C94D1010C94D1010C94D101D8
:100060000C94D1010C94D1010C94D1010C94D101C8
:10007000000000000000000000065F5F06000000B6
:100080000007070007070000147F7F147F7F14001C
:10009000242E6B6B3A120000466630180C66620024
:1000A000307A4F5D377A48000407030000000000F3
:1000B000001C3E63410000000041633E1C00000044
:1000C000082A3E1C1C3E2A0808083E3E080800007C
:1000D00000A0E06000000000080808080808000010
:1000E00000006060000000006030180C0603010092
:1000F0003E7F594D7F3E000042427F7F40400000DE
:10010000627359496F660000226349497F360000D7
:10011000181C16137F7F1000276745457D390000A6
:100120003C7E4B4979300000036371190F070000D2
:10013000367F49497F360000064F49693F1E00005F
:1001400000006C6C0000000000A0EC6C00000000DF
:10015000081C366341000000141414141414000029
:10016000004163361C080000020351590F060000CD
:100170003E7F415D5D1F1E007C7E13137E7C000070
:10018000417F7F49497F36001C3E63414163220025
:10019000417F7F41637F1C00417F7F495D41630058
:1001A000417F7F491D0103001C3E63415173720072
:1001B0007F7F08087F7F000000417F7F41000000B3
:1001C000307040417F3F0100417F7F081C77630012
:1001D000417F7F41406070007F7F060C067F7F007B
:1001E0007F7F060C187F7F001C3E6341633E1C002E
:1001F000417F7F49090F06001E3F21717F5E00008D
:10020000417F7F19396F460026674D597B320000C8
:1002100003417F7F410300007F7F40407F7F0000DC
:100220001F3F60603F1F00007F7F3018307F7F00DE
:1002300063771C081C776300074F78784F0700002E
:100240006773594D47637100007F7F414100000093
:100250000103060C183060000041417F7F00000060
:10026000080C0603060C0800808080808080808057
:100270000000030704000000207454543C78400040
:10028000413F7F44447C3800387C44446C28000063
:10029000307848493F7F4000387C54545C18000057
:1002A000487E7F490302000098BCA4A4F87C0400A7
:1002B000417F7F08047C780000447D7D4000000081
:1002C00040C484FD7D000000417F7F10386C4400F5
:1002D00000417F7F400000007C7C0C180C7C780083
:1002E0007C7C04047C780000387C44447C3800002A
:1002F00084FCF8A4243C1800183C24A4F8FC8400D6
:10030000447C78441C180000485C54547424000059
:1003100000043E7F442400003C7C40403C7C400084
:100320001C3C60603C1C00003C7C6030607C3C00FD
:10033000446C3810386C44009CBCA0A0FC7C0000CD
:100340004C64745C4C64000008083E774141000036
:1003500000000077770000004141773E0808000068
:10036000020301030203010011241FBECFEFD4E0FA
:10037000DEBFCDBF11E0A0E0B1E0E0EDF1E102C0F1
:1003800005900D92A033B107D9F721E0A0E3B1E0C9
:1003900001C01D92AE33B207E1F70E94B1020C9486
:1003A000E6080C94000081E0809300140895CF9338
:1003B000C82F0E94D301849BFECFE0E0F4E190813E
:1003C000308180812081C13039F050F0C23049F055
:1003D000C33021F080E005C0832F03C0822F01C00D
:1003E000892FCF910895CF9380E00E94D701C82F25
:1003F00081E00E94D70190913201911102C0C09317
:10040000320190913001911102C08093300190919E
:1004100033019C1710F4C093330190910701C91761
:1004200010F4C093070190913101981710F4809354
:10043000310190910601891710F480930601CF9144
:100440000895CF93DF9380E00E94D701C82FD0E0BA
:1004500081E00E94D701282F30E04091320150E026
:100460004C175D0794F0C41BD50B64E66C9FC0016C
:100470006D9F900D112460910701FA01E61BF109AF
:10048000BF010E945104E62F10C0C41BD50B64E6C7
:100490006C9FC0016D9F900D11246091330170E03D
:1004A000641B750B0E945104E62F4091300150E00F
:1004B000421753078CF0241B350B64E6629FC00182
:1004C000639F900D112420910601BA01621B7109EE
:1004D0000E945104962F10C0241B350B64E6629FC6
:1004E000C001639F900D11246091310170E0641B85
:1004F000750B0E945104962F8E2FDF91CF91089596
:100500000E942102292F482F94E0980F993020F45F
:1005100094E0920F9930E0F0082E000C990B99238B
:100520001CF4919581959109522F022E000C330BEA
:1005300033231CF43195219531098217930724F454
:10054000552344F483E00895442334F481E008956E
:1005500084E0089582E0089580E0089586B3817074
:1005600008950E9437040E943E040E9467030E947F
:10057000DF030E94DB0280E090E008951F93CF9399
:10058000DF93EC0118850E94DF030A80DB81C02D18
:1005900064E188850E94F7038E819F819F938F93EA
:1005A0000E94C40488850F900F901813EECFDF913E
:1005B000CF911F910895CF93DF93CDB7DEB7A49766
:1005C0000FB6F894DEBF0FBECDBF88E091E0998BE7
:1005D000888B9E012D5E3F4F3D872C87AE01445E88
:1005E0005F4F5F874E87CE0101969B878A871A8A65
:1005F0006EE071E07A8F698F5E8B4D8B7E014AE0F1
:10060000E40EF11CF88EEF8A9C8B8B8B41E04B8FB4
:1006100045E151E05BA34AA3FF8EEE8E39A328A3E8
:100620009D8F8C8F82E08CA38BE191E098878F83E4
:100630001C821B821E821D82C7010E94BE020E9474
:10064000F3010E94AE02082F0E948002182F83300F
:1006500071F441E164E0F70180850E940004F70134
:10066000E280F38064E0F70180850E94100412307C
:1006700071F441E164E0F70180850E940004F70114
:10068000E480F58064E0F70180850E94100486E034
:100690000E94D20365E086E00E94F7031F920F9349
:1006A00080E291E09F938F930E94C404FFEF2FEFAD
:1006B00042E0F15020404040E1F700C000C00F9000
:1006C0000F900F900F90BBCF8093001008958EEA8B
:1006D0000E94640381EA0E9464038AED0E9464031D
:1006E00082E10E94640388EC0E94640388EA0E940D
:1006F00064038FE30E94640385ED0E94640380E835
:100700000E94640381E80E94640380E50E94640300
:1007100089ED0E94640381E20E94640380E20E94EA
:10072000640382E00E9464038BED0E94640380E313
:100730000E9464038DEA0E94640380E00E946403C7
:1007400084EA0E94640386EA0E9464038FEA0E949E
:10075000640360E070E083EB93E00E947904089505
:10076000809300120895CF93DF93D82FC0E011C07B
:10077000ED2FF0E0B097EE0FFF1FEE0FFF1FEE0F13
:10078000FF1FEC0FF11DE059FF4F84910E94B00351
:10079000CF5FC83068F3DF91CF91089580550E94F4
:1007A00064030895CF930E94CE03C0E004C080E0AC
:1007B0000E94B003CF5FCC23D4F7CF910895CF939D
:1007C000C0E004C08C2F0E94D203CF5FC830D0F3AA
:1007D000CF910895CF93C82F82958F70805F0E942C
:1007E00064038C2F8F700E946403CF910895CF9380
:1007F000C62F0E94CE038C2F0E94EA03CF9108954A
:10080000CF93DF93C62FD42F0E94F70304C080E05C
:100810000E94B003CF5FCD17D0F3DF91CF91089541
:100820000E94F70386E60E94B0038FEF0E94B00398
:100830008FEF0E94B0038EE70E94B00388E10E9410
:10084000B00388E10E94B00388E10E94B00388E110
:100850000E94B00388E10E94B0038CE30E94B003C1
:100860008CE30E94B00388E10E94B003089585B72D
:10087000806885BF80B7806280BF089581B3806241
:1008800081BB81B381BB8EB588608EBD8FB58FBDB6
:100890008EB581608EBD8FB580648FBD1BBC1ABCC8
:1008A000089597FB072E16F4009407D077FD09D022
:1008B0000E94650407FC05D03EF4909581959F4FFA
:1008C0000895709561957F4F0895AA1BBB1B51E158
:1008D00007C0AA1FBB1FA617B70710F0A61BB70BB0
:1008E000881F991F5A95A9F780959095BC01CD0155
:1008F00008950F931F93CF93DF93009731F4611501
:10090000710519F480E090E03AC08B01EC016EE0D3
:1009100070E081E090E00E94BB06FC01892B91F31E
:1009200080E883830115110571F01387028781E840
:1009300083838091340190913501892B21F4F093C8
:100940003501E09334012097C9F0D187C0878381B6
:10095000826083838091360190913701892B71F4F5
:10096000F0933701E093360180913801909139017D
:10097000892B21F4F0933901E0933801CF01DF9105
:10098000CF911F910F910895A0E0B0E0EAECF4E060
:100990000C94BF08AE014B5F5F4FFA0161917191FA
:1009A000AF0180913601909137010E94DA04E2E0B4
:1009B0000C94DB08ABE0B0E0E0EEF4E00C94AF08A0
:1009C0006C017B018A01FC0117821682838181FF01
:1009D000CCC1CE0101963C01F6019381F70193FD54
:1009E000859193FF81917F01882309F4BAC18532F3
:1009F00039F493FD859193FF81917F01853229F42C
:100A0000B60190E00E941508E7CF912C212C312CE3
:100A1000FFE1F315D8F08B3279F038F4803279F0B9
:100A20008332A1F4232D20611DC08D3261F080330B
:100A300069F4232D216016C0832D8260382EE32DAA
:100A4000E4603E2E2AC0F32DF8601DC037FC2DC097
:100A500020ED280F2A3040F08E32B9F436FC81C1E7
:100A6000232D2064322E19C036FE06C08AE0989EDF
:100A7000200D1124922E11C0EAE02E9E200D11248B
:100A8000222EF32DF0623F2E08C08C3621F4832DE8
:100A90008068382E02C0883641F4F70193FD8591B5
:100AA00093FF81917F018111B3CF982F9F7D955442
:100AB000933028F40C5F1F4F9FE399830DC083365A
:100AC00031F0833771F0833509F059C021C0F80146
:100AD000808189830E5F1F4F88248394912C53015A
:100AE00013C02801F2E04F0E511CF801A080B18024
:100AF00036FE03C0692D70E002C06FEF7FEFC501C5
:100B00000E940A084C018201F32DFF773F2E16C088
:100B1000280122E0420E511CF801A080B18036FE6F
:100B200003C0692D70E002C06FEF7FEFC5010E9426
:100B3000F8074C01F32DF0683F2E820133FC1BC0F7
:100B4000822D90E088169906B0F4B60180E290E01C
:100B50000E9415082A94F4CFF50137FC859137FEE1
:100B600081915F01B60190E00E94150821102A943E
:100B700021E0821A91088114910471F7E8C084364B
:100B800011F0893641F5F80137FE07C060817181A7
:100B9000828193810C5F1F4F08C060817181072E95
:100BA000000C880B990B0E5F1F4FF32DFF763F2E25
:100BB00097FF09C090958095709561957F4F8F4FF5
:100BC0009F4FF0683F2E2AE030E0A3010E945108B9
:100BD000882E861845C0853731F4232D2F7EB22EFE
:100BE0002AE030E025C0932D997FB92E8F36C1F0D1
:100BF00018F4883579F0B5C0803719F0883721F0BE
:100C0000B0C0E92FE061BE2EB4FE0DC0FB2DF46034
:100C1000BF2E09C034FE0AC0292F2660B22E06C09E
:100C200028E030E005C020E130E002C020E132E001
:100C3000F801B7FE07C060817181828193810C5FEA
:100C40001F4F06C06081718180E090E00E5F1F4FF2
:100C5000A3010E945108882E8618FB2DFF773F2E96
:100C600036FE0DC0232D2E7FA22E891458F434FE9B
:100C70000BC032FC09C0832D8E7EA82E05C0B82C77
:100C8000A32C03C0B82C01C0B92CA4FE0FC0FE01D8
:100C9000E80DF11D8081803321F49A2D997EA92ED3
:100CA00009C0A2FE06C0B394B39404C08A2D86780E
:100CB00009F0B394A3FC11C0A0FE06C0B21488F4DE
:100CC000280C922C9B180EC0B21460F4B60180E27E
:100CD00090E00E941508B394F7CFB21418F42B18C3
:100CE00002C0982C212CA4FE10C0B60180E390E035
:100CF0000E941508A2FE17C0A1FC03C088E790E07F
:100D000002C088E590E0B6010CC08A2D867859F0C3
:100D1000A1FE02C08BE201C080E2A7FC8DE2B60119
:100D200090E00E941508891438F4B60180E390E041
:100D30000E9415089A94F7CF8A94F301E80DF11DEB
:100D40008081B60190E00E9415088110F5CF222025
:100D500009F442CEB60180E290E00E9415082A9480
:100D6000F6CFF6018681978102C08FEF9FEF2B9619
:100D7000E2E10C94CB080F931F93CF93DF93869FF0
:100D80008001879F100D969F100D1124C8010E94AD
:100D9000D706EC01009729F0A80160E070E00E94FE
:100DA0000308CE01DF91CF911F910F9108950F930A
:100DB0001F93CF93DF938230910510F482E090E08F
:100DC000E0913C01F0913D0120E030E0A0E0B0E096
:100DD000309719F1408151810281138148175907D9
:100DE000C8F08417950769F4109731F012960C93A8
:100DF000129713961C9327C000933C0110933D015A
:100E000022C02115310519F04217530718F49A0131
:100E1000BD01EF01DF01F801DBCF21153105F9F04C
:100E2000281B390B2430310580F48A819B816115A0
:100E3000710521F0FB019383828304C090933D01EF
:100E400080933C01FE01329644C0FE01E20FF31F85
:100E50008193919322503109398328833AC020919C
:100E60003A0130913B01232B41F420910201309152
:100E7000030130933B0120933A012091000130910E
:100E800001012115310541F42DB73EB74091040110
:100E900050910501241B350BE0913A01F0913B0183
:100EA000E217F307A0F42E1B3F0B2817390778F041
:100EB000AC014E5F5F4F2417350748F04E0F5F1FA0
:100EC00050933B0140933A018193919302C0E0E03B
:100ED000F0E0CF01DF91CF911F910F910895CF9353
:100EE000DF93009709F481C0FC01329713821282CC
:100EF000A0913C01B0913D01109781F42081318196
:100F0000820F931F20913A0130913B012817390736
:100F100051F5F0933B01E0933A0167C0ED0120E009
:100F200030E0CE17DF0740F44A815B819E01411516
:100F30005105F1F0EA01F5CFD383C283408151819D
:100F4000840F951FC817D90759F488819981840F98
:100F5000951F0296918380838A819B8193838283EC
:100F60002115310529F4F0933D01E0933C013DC08A
:100F7000E901FB83EA8349915991C40FD51FEC170E
:100F8000FD0761F480819181840F951F0296E9012C
:100F900099838883828193819B838A83E0E0F0E058
:100FA00012968D919C911397009719F0FD01DC0129
:100FB000F7CF8D919C9111979D012E5F3F4F820F2E
:100FC000931F20913A0130913B012817390769F4AA
:100FD000309729F410923D0110923C0102C0138217
:100FE0001282B0933B01A0933A01DF91CF91089513
:100FF000FC010590615070400110D8F780959095E4
:101000008E0F9F1F0895DC0101C06D934150504029
:10101000E0F70895FC016150704001900110D8F78D
:10102000809590958E0F9F1F08950F931F93CF93D8
:10103000DF93FB01238121FD03C08FEF9FEF2CC0C5
:1010400022FF16C0468157812481358142175307FC
:1010500044F4A081B1819D012F5F3F4F31832083F4
:101060008C93268137812F5F3F4F3783268314C0AF
:101070008B01EC01FB010084F185E02D0995892BA2
:10108000E1F6D80116968D919C91179701961796C7
:101090009C938E931697CE01DF91CF911F910F9164
:1010A0000895FA01AA27283051F1203181F1E894FE
:1010B0006F936E7F6E5F7F4F8F4F9F4FAF4FB1E04B
:1010C0003ED0B4E03CD0670F781F891F9A1FA11D46
:1010D000680F791F8A1F911DA11D6A0F711D811D47
:1010E000911DA11D20D009F468943F912AE0269F0C
:1010F00011243019305D3193DEF6CF010895462F6B
:101100004770405D4193B3E00FD0C9F7F6CF462F4B
:101110004F70405D4A3318F0495D31FD40524193B4
:1011200002D0A9F7EACFB4E0A69597958795779571
:101130006795BA95C9F700976105710508959B01F8
:10114000AC010A2E06945795479537952795BA9581
:10115000C9F7620F731F841F951FA01D08952F925A
:101160003F924F925F926F927F928F929F92AF9237
:10117000BF92CF92DF92EF92FF920F931F93CF9384
:10118000DF93CDB7DEB7CA1BDB0B0FB6F894DEBF1B
:101190000FBECDBF09942A88398848885F846E8441
:1011A0007D848C849B84AA84B984C884DF80EE808B
:1011B000FD800C811B81AA81B981CE0FD11D0FB694
:1011C000F894DEBF0FBECDBFED010895F894FFCFB8
:1011D00000003E012000FFFF4669727374005365F2
:1011E000636F6E64005468697264004D61696E00DB
:1011F000427574746F6E2056616C3A20257500003C
:00000001FF
