S0120000786D656D5F73657475702E73726563CB
S11300000C9438000C9455000C9455000C94550035
S11300100C9455000C9455000C9455000C94550008
S11300200C9455000C9455000C9455000C945500F8
S11300300C9455000C9455000C9455000C945500E8
S11300400C9455000C9455000C9455000C945500D8
S11300500C9455000C9455000C9455000C945500C8
S11300600C9455000C9455000C9455000C945500B8
S113007011241FBECFEFD4E0DEBFCDBF11E0A0E05E
S1130080B1E0E2E6FBE002C005900D92A03AB107B0
S1130090D9F721E0A0EAB1E001C01D92AA3AB20763
S11300A0E1F70E9457000C94AF050C9400000E94E5
S11300B028010E942F018FE190E00E941B010E9401
S11300C0D60080E40E94AA000E94F4001F928F933D
S11300D086E091E09F938F930E948D010F900F9083
S11300E00F900F902FEF8FEF92E0215080409040BF
S11300F0E1F700C000C0F6CFCF93C82F88B38F7E3E
S113010088BB83E00E940A018C2F0E940A010E948E
S11301100E0198B3906198BBCF9108951F93CF932C
S1130120DF93182FD62FC42F88B38F7E88BB85E02A
S11301300E940A01812F0E940A018D2F0E940A0148
S11301408C2F0E940A0188B3806188BBDF91CF9114
S11301501F910895CF93C82F482F60EE8FE00E941F
S11301608E008EE00E947C00807E8C1751F089E026
S113017091E09F938F930E948D010F900F9081E0E7
S113018009C085E391E09F938F930E948D010F90A6
S11301900F9080E0CF91089588B38F7E88BB80EC68
S11301A00E940A0188B3806188BB08950E940001FF
S11301B00E94CC008EE00E947C00807E803851F04A
S11301C085E591E09F938F930E948D010F900F908E
S11301D081E008958BE891E09F938F930E948D01B5
S11301E00F900F9080E0089588B38F7E88BB80EADB
S11301F00E940A010E940E0198B3906198BB089571
S113020087B3806B87BB8DB181658DB987B38F7BD5
S113021087BB08958FB9779BFECF08958FE00E9426
S11302200A018FB108955D9BFECF8CB908955F9B41
S1130230FECF8CB1089590BD89B988E18AB98EE862
S113024080BD67E171E083E191E00E94420108957D
S113025085B7806885BF80B7806280BF089581B309
S1130260806281BB81B381BB8EB588608EBD8FB542
S11302708FBD8EB581608EBD8FB580648FBD1BBC74
S11302801ABC08950F931F93CF93DF93009731F413
S11302906115710519F480E090E03AC08B01EC011E
S11302A06EE070E081E090E00E948403FC01892B01
S11302B091F380E883830115110571F01387028798
S11302C081E883838091A0019091A101892B21F47D
S11302D0F093A101E093A0012097C9F0D187C087D2
S11302E08381826083838091A2019091A301892BF1
S11302F071F4F093A301E093A2018091A401909181
S1130300A501892B21F4F093A501E093A401CF0169
S1130310DF91CF911F910F910895A0E0B0E0E3E940
S1130320F1E00C948805AE014B5F5F4FFA016191D7
S11303307191AF018091A2019091A3010E94A30148
S1130340E2E00C94A405ABE0B0E0E9EAF1E00C943F
S113035078056C017B018A01FC0117821682838176
S113036081FFCCC1CE0101963C01F6019381F701D6
S113037093FD859193FF81917F01882309F4BAC18C
S1130380853239F493FD859193FF81917F01853204
S113039029F4B60190E00E94DE04E7CF912C212CD1
S11303A0312CFFE1F315D8F08B3279F038F4803238
S11303B079F08332A1F4232D20611DC08D3261F0C8
S11303C0803369F4232D216016C0832D8260382E7A
S11303D0E32DE4603E2E2AC0F32DF8601DC037FCE7
S11303E02DC020ED280F2A3040F08E32B9F436FCAF
S11303F081C1232D2064322E19C036FE06C08AE046
S1130400989E200D1124922E11C0EAE02E9E200DFC
S11304101124222EF32DF0623F2E08C08C3621F4D5
S1130420832D8068382E02C0883641F4F70193FD8D
S1130430859193FF81917F018111B3CF982F9F7D87
S11304409554933028F40C5F1F4F9FE399830DC09C
S1130450833631F0833771F0833509F059C021C0F8
S1130460F801808189830E5F1F4F88248394912C27
S1130470530113C02801F2E04F0E511CF801A08073
S1130480B18036FE03C0692D70E002C06FEF7FEFCC
S1130490C5010E94D3044C018201F32DFF773F2E46
S11304A016C0280122E0420E511CF801A080B18040
S11304B036FE03C0692D70E002C06FEF7FEFC50107
S11304C00E94C1044C01F32DF0683F2E820133FCDD
S11304D01BC0822D90E088169906B0F4B60180E224
S11304E090E00E94DE042A94F4CFF50137FC859154
S11304F037FE81915F01B60190E00E94DE04211075
S11305002A9421E0821A91088114910471F7E8C0B9
S1130510843611F0893641F5F80137FE07C0608151
S11305207181828193810C5F1F4F08C0608171814A
S1130530072E000C880B990B0E5F1F4FF32DFF76CF
S11305403F2E97FF09C090958095709561957F4FD8
S11305508F4F9F4FF0683F2E2AE030E0A3010E94A6
S11305601A05882E861845C0853731F4232D2F7E31
S1130570B22E2AE030E025C0932D997FB92E8F3614
S1130580C1F018F4883579F0B5C0803719F0883790
S113059021F0B0C0E92FE061BE2EB4FE0DC0FB2DEA
S11305A0F460BF2E09C034FE0AC0292F2660B22E83
S11305B006C028E030E005C020E130E002C020E1C0
S11305C032E0F801B7FE07C06081718182819381B6
S11305D00C5F1F4F06C06081718180E090E00E5F68
S11305E01F4FA3010E941A05882E8618FB2DFF7742
S11305F03F2E36FE0DC0232D2E7FA22E891458F4D3
S113060034FE0BC032FC09C0832D8E7EA82E05C09B
S1130610B82CA32C03C0B82C01C0B92CA4FE0FC065
S1130620FE01E80DF11D8081803321F49A2D997E1D
S1130630A92E09C0A2FE06C0B394B39404C08A2DA7
S1130640867809F0B394A3FC11C0A0FE06C0B214CE
S113065088F4280C922C9B180EC0B21460F4B601D6
S113066080E290E00E94DE04B394F7CFB21418F451
S11306702B1802C0982C212CA4FE10C0B60180E3D4
S113068090E00E94DE04A2FE17C0A1FC03C088E72C
S113069090E002C088E590E0B6010CC08A2D86780F
S11306A059F0A1FE02C08BE201C080E2A7FC8DE2FA
S11306B0B60190E00E94DE04891438F4B60180E3A8
S11306C090E00E94DE049A94F7CF8A94F301E80D37
S11306D0F11D8081B60190E00E94DE048110F5CF07
S11306E0222009F442CEB60180E290E00E94DE04AA
S11306F02A94F6CFF6018681978102C08FEF9FEF8F
S11307002B96E2E10C9494050F931F93CF93DF9300
S1130710869F8001879F100D969F100D1124C8019C
S11307200E94A003EC01009729F0A80160E070E0AA
S11307300E94CC04CE01DF91CF911F910F910895B7
S11307400F931F93CF93DF938230910510F482E0CF
S113075090E0E091A801F091A90120E030E0A0E050
S1130760B0E0309719F1408151810281138148171B
S11307705907C8F08417950769F4109731F0129659
S11307800C93129713961C9327C00093A8011093FF
S1130790A90122C02115310519F04217530718F495
S11307A09A01BD01EF01DF01F801DBCF211531050D
S11307B0F9F0281B390B2430310580F48A819B81A0
S11307C06115710521F0FB019383828304C090932A
S11307D0A9018093A801FE01329644C0FE01E20FF4
S11307E0F31F8193919322503109398328833AC0AE
S11307F02091A6013091A701232B41F420910201FD
S1130800309103013093A7012093A60120910001A8
S1130810309101012115310541F42DB73EB74091C6
S1130820040150910501241B350BE091A601F091C0
S1130830A701E217F307A0F42E1B3F0B2817390773
S113084078F0AC014E5F5F4F2417350748F04E0F28
S11308505F1F5093A7014093A6018193919302C017
S1130860E0E0F0E0CF01DF91CF911F910F91089567
S1130870CF93DF93009709F481C0FC013297138270
S11308801282A091A801B091A901109781F420814E
S11308903181820F931F2091A6013091A70128175F
S11308A0390751F5F093A701E093A60167C0ED0164
S11308B020E030E0CE17DF0740F44A815B819E01DF
S11308C041155105F1F0EA01F5CFD383C28340818C
S11308D05181840F951FC817D90759F488819981CC
S11308E0840F951F0296918380838A819B819383D1
S11308F082832115310529F4F093A901E093A8011D
S11309003DC0E901FB83EA8349915991C40FD51F86
S1130910EC17FD0761F480819181840F951F029685
S1130920E90199838883828193819B838A83E0E0B0
S1130930F0E012968D919C911397009719F0FD01A8
S1130940DC01F7CF8D919C9111979D012E5F3F4F54
S1130950820F931F2091A6013091A7012817390710
S113096069F4309729F41092A9011092A80102C0E9
S113097013821282B093A701A093A601DF91CF91B5
S11309800895FC010590615070400110D8F78095DE
S113099090958E0F9F1F0895DC0101C06D93415007
S11309A05040E0F70895FC0161507040019001103F
S11309B0D8F7809590958E0F9F1F08950F931F93DE
S11309C0CF93DF93FB01238121FD03C08FEF9FEFC2
S11309D02CC022FF16C046815781248135814217DD
S11309E0530744F4A081B1819D012F5F3F4F3183B0
S11309F020838C93268137812F5F3F4F3783268353
S1130A0014C08B01EC01FB010084F185E02D0995F4
S1130A10892BE1F6D80116968D919C911797019632
S1130A2017969C938E931697CE01DF91CF911F91C9
S1130A300F910895FA01AA27283051F1203181F14C
S1130A40E8946F936E7F6E5F7F4F8F4F9F4FAF4FD2
S1130A50B1E03ED0B4E03CD0670F781F891F9A1FE5
S1130A60A11D680F791F8A1F911DA11D6A0F711D99
S1130A70811D911DA11D20D009F468943F912AE0A5
S1130A80269F11243019305D3193DEF6CF0108958D
S1130A90462F4770405D4193B3E00FD0C9F7F6CFBE
S1130AA0462F4F70405D4A3318F0495D31FD405286
S1130AB0419302D0A9F7EACFB4E0A695979587951C
S1130AC077956795BA95C9F70097610571050895FB
S1130AD09B01AC010A2E06945795479537952795A7
S1130AE0BA95C9F7620F731F841F951FA01D08953F
S1130AF02F923F924F925F926F927F928F929F922A
S1130B00AF92BF92CF92DF92EF92FF920F931F9317
S1130B10CF93DF93CDB7DEB7CA1BDB0B0FB6F894C8
S1130B20DEBF0FBECDBF09942A88398848885F8408
S1130B306E847D848C849B84AA84B984C884DF8079
S1130B40EE80FD800C811B81AA81B981CE0FD11D5D
S1130B500FB6F894DEBF0FBECDBFED010895F89433
S1050B60FFCFC1
S1130B620000AA012000256400206D637032353133
S1130B7235206973206E6F74206368616E676564E3
S1130B8220746F2064657369726564206D6F646597
S1130B9220210A0D004D43502073756363657373FE
S1130BA266756C6C79206368616E676564206D6F2D
S1130BB264650A0D00204D43503235313520697386
S1130BC2204E4F5420696E20636F6E66696775729A
S1130BD26174696F6E206D6F6465206166746572FD
S1130BE220726573657420210A0D004D43502069FB
S1130BF26E20436F6E6669672D6D6F64650A0D0022
S9030000FC
