:100000000C9438000C947E000C9455000C94550010
:100010000C9455000C9455000C9455000C9455000C
:100020000C9455000C9455000C9455000C945500FC
:100030000C9455000C9455000C9455000C945500EC
:100040000C9455000C9455000C9455000C945500DC
:100050000C9455000C9455000C9455000C945500CC
:100060000C9455000C9455000C9455000C945500BC
:1000700011241FBECFEFD4E0DEBFCDBF12E0A0E061
:10008000B1E0E4EFFCE002C005900D92A832B107A8
:10009000D9F722E0A8E2B2E001C01D92A333B20773
:1000A000E1F70E94C2000C9478060C940000CF93F4
:1000B000DF93D62FC42F682F82E30E9436016D2F65
:1000C00081E30E94360161E085E30E9436016C2FD6
:1000D00086E30E94360181E80E944C01DF91CF91B6
:1000E000089581E60E94240182E60E94240185E6AB
:1000F0000E94240186E60E94240108951F920F9217
:100100000FB60F9211242F933F934F935F936F93EA
:100110007F938F939F93AF93BF93EF93FF93CF936F
:10012000DF931F92CDB7DEB78CE20E942401898352
:10013000698140E08CE20E94550189811F928F9372
:1001400086E091E09F938F930E9456020E94710077
:10015000809328020F900F900F900F900F90DF91D7
:10016000CF91FF91EF91BF91AF919F918F917F912F
:100170006F915F914F913F912F910F900FBE0F9014
:100180001F9018950E94F1010E94F8018FE190E004
:100190000E94E4010E949D0180E40E9471018DE1B2
:1001A00091E09F938F930E94560249E96FE08FEF91
:1001B0000E9457001F9289E98F9389E391E09F93F2
:1001C0008F930E945602809128021F928F93CBE456
:1001D000D1E0DF93CF930E9456029FEF2FEF8DE186
:1001E000915020408040E1F700C0000081E691E09E
:1001F0009F938F930E9456024BEA6FE08FEF0E940D
:1002000057001F928BEA8F938DE791E09F938F9316
:100210000E945602809128021F928F93DF93CF9302
:100220000E9456028FEF9FEF2EE0815090402040B9
:10023000E1F700C000008DB79EB744960FB6F89462
:100240009EBF0FBE8DBFABCFCF93C82F88B38F7E1D
:1002500088BB83E00E94D3018C2F0E94D3010E94AF
:10026000D70198B3906198BBCF910895CF93DF9356
:10027000D82FC62F88B38F7E88BB82E00E94D3011F
:100280008D2F0E94D3018C2F0E94D30188B38061EF
:1002900088BBDF91CF91089598B39F7E98BB0E9451
:1002A000D30188B3806188BB08951F93CF93DF93F8
:1002B000182FD62FC42F88B38F7E88BB85E00E946D
:1002C000D301812F0E94D3018D2F0E94D3018C2F47
:1002D0000E94D30188B3806188BBDF91CF911F91C9
:1002E0000895CF93C82F482F60EE8FE00E945501EC
:1002F0008EE00E942401807E8C1751F080E991E00D
:100300009F938F930E9456020F900F9081E009C037
:100310008CEB91E09F938F930E9456020F900F9069
:1003200080E0CF91089588B38F7E88BB80EC0E94D7
:10033000D30188B3806188BB089578948BB78064BB
:100340008BBF0E94C9010E9493018EE00E9424018C
:10035000807E803851F08CED91E09F938F930E94C6
:1003600056020F900F9081E0089582E192E09F93F2
:100370008F930E9456024CE164E58BE20E94550186
:1003800043E063E08BE20E9455010F900F9080E004
:10039000089587B3806B87BB8DB181658DB987B3B5
:1003A0008F7B87BB08958FB9779BFECF08958FE031
:1003B0000E94D3018FB108955D9BFECF8CB9089543
:1003C0005F9BFECF8CB1089590BD89B988E18AB951
:1003D0008EE880BD60EE71E08CED91E00E940B0232
:1003E000089585B7806885BF80B7806280BF089513
:1003F00081B3806281BB81B381BB8EB588608EBDC5
:100400008FB58FBD8EB581608EBD8FB580648FBD79
:100410001BBC1ABC08950F931F93CF93DF930097D3
:1004200031F46115710519F480E090E03AC08B0158
:10043000EC016EE070E081E090E00E944D04FC0170
:10044000892B91F380E883830115110571F01387DF
:10045000028781E883838091290290912A02892B67
:1004600021F4F0932A02E09329022097C9F0D18762
:10047000C08783818260838380912B0290912C02BC
:10048000892B71F4F0932C02E0932B0280912D02C2
:1004900090912E02892B21F4F0932E02E0932D02ED
:1004A000CF01DF91CF911F910F910895A0E0B0E0AF
:1004B000ECE5F2E00C945106AE014B5F5F4FFA01A0
:1004C00061917191AF0180912B0290912C020E9459
:1004D0006C02E2E00C946D06ABE0B0E0E2E7F2E023
:1004E0000C9441066C017B018A01FC011782168283
:1004F000838181FFCCC1CE0101963C01F60193813D
:10050000F70193FD859193FF81917F01882309F481
:10051000BAC1853239F493FD859193FF81917F01B2
:10052000853229F4B60190E00E94A705E7CF912C0F
:10053000212C312CFFE1F315D8F08B3279F038F40F
:10054000803279F08332A1F4232D20611DC08D32D9
:1005500061F0803369F4232D216016C0832D826001
:10056000382EE32DE4603E2E2AC0F32DF8601DC026
:1005700037FC2DC020ED280F2A3040F08E32B9F420
:1005800036FC81C1232D2064322E19C036FE06C0F0
:100590008AE0989E200D1124922E11C0EAE02E9E32
:1005A000200D1124222EF32DF0623F2E08C08C3630
:1005B00021F4832D8068382E02C0883641F4F7017B
:1005C00093FD859193FF81917F018111B3CF982F86
:1005D0009F7D9554933028F40C5F1F4F9FE39983C0
:1005E0000DC0833631F0833771F0833509F059C07F
:1005F00021C0F801808189830E5F1F4F8824839476
:10060000912C530113C02801F2E04F0E511CF80148
:10061000A080B18036FE03C0692D70E002C06FEF8C
:100620007FEFC5010E949C054C018201F32DFF77ED
:100630003F2E16C0280122E0420E511CF801A08076
:10064000B18036FE03C0692D70E002C06FEF7FEF0E
:10065000C5010E948A054C01F32DF0683F2E8201EE
:1006600033FC1BC0822D90E088169906B0F4B601C9
:1006700080E290E00E94A7052A94F4CFF50137FCB0
:10068000859137FE81915F01B60190E00E94A70538
:1006900021102A9421E0821A91088114910471F7A3
:1006A000E8C0843611F0893641F5F80137FE07C0FD
:1006B00060817181828193810C5F1F4F08C06081CE
:1006C0007181072E000C880B990B0E5F1F4FF32DC5
:1006D000FF763F2E97FF09C09095809570956195A4
:1006E0007F4F8F4F9F4FF0683F2E2AE030E0A301ED
:1006F0000E94E305882E861845C0853731F4232DE6
:100700002F7EB22E2AE030E025C0932D997FB92E9E
:100710008F36C1F018F4883579F0B5C0803719F0FC
:10072000883721F0B0C0E92FE061BE2EB4FE0DC0C5
:10073000FB2DF460BF2E09C034FE0AC0292F2660AD
:10074000B22E06C028E030E005C020E130E002C053
:1007500020E132E0F801B7FE07C06081718182813B
:1007600093810C5F1F4F06C06081718180E090E033
:100770000E5F1F4FA3010E94E305882E8618FB2DF4
:10078000FF773F2E36FE0DC0232D2E7FA22E89141B
:1007900058F434FE0BC032FC09C0832D8E7EA82E87
:1007A00005C0B82CA32C03C0B82C01C0B92CA4FEE2
:1007B0000FC0FE01E80DF11D8081803321F49A2DD8
:1007C000997EA92E09C0A2FE06C0B394B39404C0BA
:1007D0008A2D867809F0B394A3FC11C0A0FE06C050
:1007E000B21488F4280C922C9B180EC0B21460F43A
:1007F000B60180E290E00E94A705B394F7CFB2144F
:1008000018F42B1802C0982C212CA4FE10C0B6019D
:1008100080E390E00E94A705A2FE17C0A1FC03C0E0
:1008200088E790E002C088E590E0B6010CC08A2D10
:10083000867859F0A1FE02C08BE201C080E2A7FCDD
:100840008DE2B60190E00E94A705891438F4B60144
:1008500080E390E00E94A7059A94F7CF8A94F30171
:10086000E80DF11D8081B60190E00E94A70581107E
:10087000F5CF222009F442CEB60180E290E00E943A
:10088000A7052A94F6CFF6018681978102C08FEFE3
:100890009FEF2B96E2E10C945D060F931F93CF938D
:1008A000DF93869F8001879F100D969F100D112466
:1008B000C8010E946904EC01009729F0A80160E0DA
:1008C00070E00E949505CE01DF91CF911F910F91AD
:1008D00008950F931F93CF93DF938230910510F407
:1008E00082E090E0E0913102F091320220E030E0CD
:1008F000A0E0B0E0309719F140815181028113816D
:1009000048175907C8F08417950769F4109731F014
:1009100012960C93129713961C9327C000933102E2
:100920001093320222C02115310519F042175307E6
:1009300018F49A01BD01EF01DF01F801DBCF2115A9
:100940003105F9F0281B390B2430310580F48A81F8
:100950009B816115710521F0FB019383828304C0A3
:100960009093320280933102FE01329644C0FE0120
:10097000E20FF31F81939193225031093983288329
:100980003AC020912F0230913002232B41F4209164
:100990000201309103013093300220932F02209105
:1009A0000001309101012115310541F42DB73EB709
:1009B0004091040150910501241B350BE0912F0259
:1009C000F0913002E217F307A0F42E1B3F0B28171B
:1009D000390778F0AC014E5F5F4F2417350748F0B8
:1009E0004E0F5F1F5093300240932F0281939193DB
:1009F00002C0E0E0F0E0CF01DF91CF911F910F91B5
:100A00000895CF93DF93009709F481C0FC013297DA
:100A100013821282A0913102B0913202109781F4B8
:100A200020813181820F931F20912F02309130025B
:100A30002817390751F5F0933002E0932F0267C071
:100A4000ED0120E030E0CE17DF0740F44A815B8102
:100A50009E0141155105F1F0EA01F5CFD383C28320
:100A600040815181840F951FC817D90759F4888197
:100A70009981840F951F0296918380838A819B813F
:100A8000938382832115310529F4F0933202E09398
:100A900031023DC0E901FB83EA8349915991C40FBA
:100AA000D51FEC17FD0761F480819181840F951F9C
:100AB0000296E90199838883828193819B838A834B
:100AC000E0E0F0E012968D919C911397009719F059
:100AD000FD01DC01F7CF8D919C9111979D012E5F57
:100AE0003F4F820F931F20912F0230913002281721
:100AF000390769F4309729F41092320210923102CA
:100B000002C013821282B0933002A0932F02DF91B1
:100B1000CF910895FC010590615070400110D8F705
:100B2000809590958E0F9F1F0895DC0101C06D93F5
:100B300041505040E0F70895FC0161507040019031
:100B40000110D8F7809590958E0F9F1F08950F93F1
:100B50001F93CF93DF93FB01238121FD03C08FEF10
:100B60009FEF2CC022FF16C046815781248135811A
:100B70004217530744F4A081B1819D012F5F3F4F7D
:100B8000318320838C93268137812F5F3F4F3783BA
:100B9000268314C08B01EC01FB010084F185E02D5C
:100BA0000995892BE1F6D80116968D919C9117979E
:100BB000019617969C938E931697CE01DF91CF9155
:100BC0001F910F910895FA01AA27283051F1203181
:100BD00081F1E8946F936E7F6E5F7F4F8F4F9F4FD1
:100BE000AF4FB1E03ED0B4E03CD0670F781F891F13
:100BF0009A1FA11D680F791F8A1F911DA11D6A0FE1
:100C0000711D811D911DA11D20D009F468943F9193
:100C10002AE0269F11243019305D3193DEF6CF0192
:100C20000895462F4770405D4193B3E00FD0C9F758
:100C3000F6CF462F4F70405D4A3318F0495D31FDC5
:100C40004052419302D0A9F7EACFB4E0A695979518
:100C5000879577956795BA95C9F7009761057105EE
:100C600008959B01AC010A2E069457954795379538
:100C70002795BA95C9F7620F731F841F951FA01D92
:100C800008952F923F924F925F926F927F928F9230
:100C90009F92AF92BF92CF92DF92EF92FF920F930B
:100CA0001F93CF93DF93CDB7DEB7CA1BDB0B0FB615
:100CB000F894DEBF0FBECDBF09942A8839884888D2
:100CC0005F846E847D848C849B84AA84B984C88468
:100CD000DF80EE80FD800C811B81AA81B981CE0F5F
:100CE000D11D0FB6F894DEBF0FBECDBFED01089544
:040CF000F894FFCFA6
:100CF400000033022000496E7465727275707420AE
:100D040076616C75653A202564200A0D005F5F5F8B
:100D14005F5F5F5F5F5F5F5F315F5F5F5F5F5F5F0D
:100D24005F5F5F5F5F0A0A0D0053656E7420766132
:100D34006C75653A202564200A0D00526563656967
:100D44007665642076616C75653A202564200A0D09
:100D5400005F5F5F5F5F5F5F5F5F5F5F325F5F5F2B
:100D64005F5F5F5F5F5F5F5F5F0A0A0D0053656EE1
:100D740064742076616C75653A202564200A0D0040
:100D8400206D637032353135206973206E6F7420A5
:100D94006368616E67656420746F2064657369724B
:100DA4006564206D6F646520210A0D004D43502059
:100DB4007375636365737366756C6C7920636861BE
:100DC4006E676564206D6F64650A0D00204D4350A5
:100DD40032353135206973204E4F5420696E2063BB
:100DE4006F6E66696775726174696F6E206D6F648A
:100DF4006520616674657220726573657420210ACA
:100E04000D004D435020696E20436F6E6669672D57
:080E14006D6F64650A0D00001A
:00000001FF
